{
  "_format": "hh-sol-artifact-1",
  "contractName": "xKaam",
  "sourceName": "contracts/xKaam.sol",
  "abi": [
    {
      "inputs": [
        {
          "internalType": "uint256",
          "name": "cap",
          "type": "uint256"
        }
      ],
      "stateMutability": "nonpayable",
      "type": "constructor"
    },
    {
      "inputs": [
        {
          "internalType": "uint256",
          "name": "increasedSupply",
          "type": "uint256"
        },
        {
          "internalType": "uint256",
          "name": "cap",
          "type": "uint256"
        }
      ],
      "name": "ERC20ExceededCap",
      "type": "error"
    },
    {
      "inputs": [
        {
          "internalType": "address",
          "name": "spender",
          "type": "address"
        },
        {
          "internalType": "uint256",
          "name": "allowance",
          "type": "uint256"
        },
        {
          "internalType": "uint256",
          "name": "needed",
          "type": "uint256"
        }
      ],
      "name": "ERC20InsufficientAllowance",
      "type": "error"
    },
    {
      "inputs": [
        {
          "internalType": "address",
          "name": "sender",
          "type": "address"
        },
        {
          "internalType": "uint256",
          "name": "balance",
          "type": "uint256"
        },
        {
          "internalType": "uint256",
          "name": "needed",
          "type": "uint256"
        }
      ],
      "name": "ERC20InsufficientBalance",
      "type": "error"
    },
    {
      "inputs": [
        {
          "internalType": "address",
          "name": "approver",
          "type": "address"
        }
      ],
      "name": "ERC20InvalidApprover",
      "type": "error"
    },
    {
      "inputs": [
        {
          "internalType": "uint256",
          "name": "cap",
          "type": "uint256"
        }
      ],
      "name": "ERC20InvalidCap",
      "type": "error"
    },
    {
      "inputs": [
        {
          "internalType": "address",
          "name": "receiver",
          "type": "address"
        }
      ],
      "name": "ERC20InvalidReceiver",
      "type": "error"
    },
    {
      "inputs": [
        {
          "internalType": "address",
          "name": "sender",
          "type": "address"
        }
      ],
      "name": "ERC20InvalidSender",
      "type": "error"
    },
    {
      "inputs": [
        {
          "internalType": "address",
          "name": "spender",
          "type": "address"
        }
      ],
      "name": "ERC20InvalidSpender",
      "type": "error"
    },
    {
      "anonymous": false,
      "inputs": [
        {
          "indexed": true,
          "internalType": "address",
          "name": "owner",
          "type": "address"
        },
        {
          "indexed": true,
          "internalType": "address",
          "name": "spender",
          "type": "address"
        },
        {
          "indexed": false,
          "internalType": "uint256",
          "name": "value",
          "type": "uint256"
        }
      ],
      "name": "Approval",
      "type": "event"
    },
    {
      "anonymous": false,
      "inputs": [
        {
          "indexed": true,
          "internalType": "address",
          "name": "from",
          "type": "address"
        },
        {
          "indexed": true,
          "internalType": "address",
          "name": "to",
          "type": "address"
        },
        {
          "indexed": false,
          "internalType": "uint256",
          "name": "value",
          "type": "uint256"
        }
      ],
      "name": "Transfer",
      "type": "event"
    },
    {
      "inputs": [
        {
          "internalType": "address",
          "name": "owner",
          "type": "address"
        },
        {
          "internalType": "address",
          "name": "spender",
          "type": "address"
        }
      ],
      "name": "allowance",
      "outputs": [
        {
          "internalType": "uint256",
          "name": "",
          "type": "uint256"
        }
      ],
      "stateMutability": "view",
      "type": "function"
    },
    {
      "inputs": [
        {
          "internalType": "address",
          "name": "spender",
          "type": "address"
        },
        {
          "internalType": "uint256",
          "name": "value",
          "type": "uint256"
        }
      ],
      "name": "approve",
      "outputs": [
        {
          "internalType": "bool",
          "name": "",
          "type": "bool"
        }
      ],
      "stateMutability": "nonpayable",
      "type": "function"
    },
    {
      "inputs": [
        {
          "internalType": "address",
          "name": "account",
          "type": "address"
        }
      ],
      "name": "balanceOf",
      "outputs": [
        {
          "internalType": "uint256",
          "name": "",
          "type": "uint256"
        }
      ],
      "stateMutability": "view",
      "type": "function"
    },
    {
      "inputs": [
        {
          "internalType": "address",
          "name": "from",
          "type": "address"
        },
        {
          "internalType": "uint256",
          "name": "amt",
          "type": "uint256"
        }
      ],
      "name": "burn",
      "outputs": [],
      "stateMutability": "nonpayable",
      "type": "function"
    },
    {
      "inputs": [],
      "name": "cap",
      "outputs": [
        {
          "internalType": "uint256",
          "name": "",
          "type": "uint256"
        }
      ],
      "stateMutability": "view",
      "type": "function"
    },
    {
      "inputs": [],
      "name": "decimals",
      "outputs": [
        {
          "internalType": "uint8",
          "name": "",
          "type": "uint8"
        }
      ],
      "stateMutability": "view",
      "type": "function"
    },
    {
      "inputs": [
        {
          "internalType": "address",
          "name": "to",
          "type": "address"
        },
        {
          "internalType": "uint256",
          "name": "amt",
          "type": "uint256"
        }
      ],
      "name": "mint",
      "outputs": [],
      "stateMutability": "nonpayable",
      "type": "function"
    },
    {
      "inputs": [],
      "name": "name",
      "outputs": [
        {
          "internalType": "string",
          "name": "",
          "type": "string"
        }
      ],
      "stateMutability": "view",
      "type": "function"
    },
    {
      "inputs": [],
      "name": "owner",
      "outputs": [
        {
          "internalType": "address",
          "name": "",
          "type": "address"
        }
      ],
      "stateMutability": "view",
      "type": "function"
    },
    {
      "inputs": [],
      "name": "symbol",
      "outputs": [
        {
          "internalType": "string",
          "name": "",
          "type": "string"
        }
      ],
      "stateMutability": "view",
      "type": "function"
    },
    {
      "inputs": [],
      "name": "totalSupply",
      "outputs": [
        {
          "internalType": "uint256",
          "name": "",
          "type": "uint256"
        }
      ],
      "stateMutability": "view",
      "type": "function"
    },
    {
      "inputs": [
        {
          "internalType": "address",
          "name": "to",
          "type": "address"
        },
        {
          "internalType": "uint256",
          "name": "value",
          "type": "uint256"
        }
      ],
      "name": "transfer",
      "outputs": [
        {
          "internalType": "bool",
          "name": "",
          "type": "bool"
        }
      ],
      "stateMutability": "nonpayable",
      "type": "function"
    },
    {
      "inputs": [
        {
          "internalType": "address",
          "name": "from",
          "type": "address"
        },
        {
          "internalType": "address",
          "name": "to",
          "type": "address"
        },
        {
          "internalType": "uint256",
          "name": "value",
          "type": "uint256"
        }
      ],
      "name": "transferFrom",
      "outputs": [
        {
          "internalType": "bool",
          "name": "",
          "type": "bool"
        }
      ],
      "stateMutability": "nonpayable",
      "type": "function"
    }
  ],
  "bytecode": "0x60a060405234801562000010575f80fd5b5060405162001f8638038062001f86833981810160405281019062000036919062000584565b806040518060400160405280600a81526020017f784b61616d546f6b656e000000000000000000000000000000000000000000008152506040518060400160405280600581526020017f784b61616d0000000000000000000000000000000000000000000000000000008152508160039081620000b491906200080f565b508060049081620000c691906200080f565b5050505f810362000110575f6040517f392e1e2700000000000000000000000000000000000000000000000000000000815260040162000107919062000934565b60405180910390fd5b8060808181525050503360055f6101000a81548173ffffffffffffffffffffffffffffffffffffffff021916908373ffffffffffffffffffffffffffffffffffffffff160217905550620001ba60055f9054906101000a900473ffffffffffffffffffffffffffffffffffffffff166200018f620001c160201b60201c565b600a6200019d919062000ad8565b63042c1d80620001ae919062000b28565b620001c960201b60201c565b5062000c9c565b5f6012905090565b5f73ffffffffffffffffffffffffffffffffffffffff168273ffffffffffffffffffffffffffffffffffffffff16036200023c575f6040517fec442f0500000000000000000000000000000000000000000000000000000000815260040162000233919062000bb5565b60405180910390fd5b6200024f5f83836200025360201b60201c565b5050565b620002668383836200031260201b60201c565b5f73ffffffffffffffffffffffffffffffffffffffff168373ffffffffffffffffffffffffffffffffffffffff16036200030d575f620002ab6200053660201b60201c565b90505f620002be6200053f60201b60201c565b9050818111156200030a5780826040517f9e79f8540000000000000000000000000000000000000000000000000000000081526004016200030192919062000be1565b60405180910390fd5b50505b505050565b5f73ffffffffffffffffffffffffffffffffffffffff168373ffffffffffffffffffffffffffffffffffffffff160362000366578060025f82825462000359919062000c0c565b9250508190555062000437565b5f805f8573ffffffffffffffffffffffffffffffffffffffff1673ffffffffffffffffffffffffffffffffffffffff1681526020019081526020015f2054905081811015620003f2578381836040517fe450d38c000000000000000000000000000000000000000000000000000000008152600401620003e99392919062000c46565b60405180910390fd5b8181035f808673ffffffffffffffffffffffffffffffffffffffff1673ffffffffffffffffffffffffffffffffffffffff1681526020019081526020015f2081905550505b5f73ffffffffffffffffffffffffffffffffffffffff168273ffffffffffffffffffffffffffffffffffffffff160362000480578060025f8282540392505081905550620004ca565b805f808473ffffffffffffffffffffffffffffffffffffffff1673ffffffffffffffffffffffffffffffffffffffff1681526020019081526020015f205f82825401925050819055505b8173ffffffffffffffffffffffffffffffffffffffff168373ffffffffffffffffffffffffffffffffffffffff167fddf252ad1be2c89b69c2b068fc378daa952ba7f163c4a11628f55a4df523b3ef8360405162000529919062000c81565b60405180910390a3505050565b5f608051905090565b5f600254905090565b5f80fd5b5f819050919050565b62000560816200054c565b81146200056b575f80fd5b50565b5f815190506200057e8162000555565b92915050565b5f602082840312156200059c576200059b62000548565b5b5f620005ab848285016200056e565b91505092915050565b5f81519050919050565b7f4e487b71000000000000000000000000000000000000000000000000000000005f52604160045260245ffd5b7f4e487b71000000000000000000000000000000000000000000000000000000005f52602260045260245ffd5b5f60028204905060018216806200063057607f821691505b602082108103620006465762000645620005eb565b5b50919050565b5f819050815f5260205f209050919050565b5f6020601f8301049050919050565b5f82821b905092915050565b5f60088302620006aa7fffffffffffffffffffffffffffffffffffffffffffffffffffffffffffffffff826200066d565b620006b686836200066d565b95508019841693508086168417925050509392505050565b5f819050919050565b5f620006f7620006f1620006eb846200054c565b620006ce565b6200054c565b9050919050565b5f819050919050565b6200071283620006d7565b6200072a6200072182620006fe565b84845462000679565b825550505050565b5f90565b6200074062000732565b6200074d81848462000707565b505050565b5b818110156200077457620007685f8262000736565b60018101905062000753565b5050565b601f821115620007c3576200078d816200064c565b62000798846200065e565b81016020851015620007a8578190505b620007c0620007b7856200065e565b83018262000752565b50505b505050565b5f82821c905092915050565b5f620007e55f1984600802620007c8565b1980831691505092915050565b5f620007ff8383620007d4565b9150826002028217905092915050565b6200081a82620005b4565b67ffffffffffffffff811115620008365762000835620005be565b5b62000842825462000618565b6200084f82828562000778565b5f60209050601f83116001811462000885575f841562000870578287015190505b6200087c8582620007f2565b865550620008eb565b601f19841662000895866200064c565b5f5b82811015620008be5784890151825560018201915060208501945060208101905062000897565b86831015620008de5784890151620008da601f891682620007d4565b8355505b6001600288020188555050505b505050505050565b5f819050919050565b5f6200091c620009166200091084620008f3565b620006ce565b6200054c565b9050919050565b6200092e81620008fc565b82525050565b5f602082019050620009495f83018462000923565b92915050565b7f4e487b71000000000000000000000000000000000000000000000000000000005f52601160045260245ffd5b5f8160011c9050919050565b5f808291508390505b6001851115620009d957808604811115620009b157620009b06200094f565b5b6001851615620009c15780820291505b8081029050620009d1856200097c565b945062000991565b94509492505050565b5f82620009f3576001905062000ac5565b8162000a02575f905062000ac5565b816001811462000a1b576002811462000a265762000a5c565b600191505062000ac5565b60ff84111562000a3b5762000a3a6200094f565b5b8360020a91508482111562000a555762000a546200094f565b5b5062000ac5565b5060208310610133831016604e8410600b841016171562000a965782820a90508381111562000a905762000a8f6200094f565b5b62000ac5565b62000aa5848484600162000988565b9250905081840481111562000abf5762000abe6200094f565b5b81810290505b9392505050565b5f60ff82169050919050565b5f62000ae4826200054c565b915062000af18362000acc565b925062000b207fffffffffffffffffffffffffffffffffffffffffffffffffffffffffffffffff8484620009e2565b905092915050565b5f62000b34826200054c565b915062000b41836200054c565b925082820262000b51816200054c565b9150828204841483151762000b6b5762000b6a6200094f565b5b5092915050565b5f73ffffffffffffffffffffffffffffffffffffffff82169050919050565b5f62000b9d8262000b72565b9050919050565b62000baf8162000b91565b82525050565b5f60208201905062000bca5f83018462000ba4565b92915050565b62000bdb816200054c565b82525050565b5f60408201905062000bf65f83018562000bd0565b62000c05602083018462000bd0565b9392505050565b5f62000c18826200054c565b915062000c25836200054c565b925082820190508082111562000c405762000c3f6200094f565b5b92915050565b5f60608201905062000c5b5f83018662000ba4565b62000c6a602083018562000bd0565b62000c79604083018462000bd0565b949350505050565b5f60208201905062000c965f83018462000bd0565b92915050565b6080516112d162000cb55f395f6103a101526112d15ff3fe608060405234801561000f575f80fd5b50600436106100cd575f3560e01c806340c10f191161008a57806395d89b411161006457806395d89b41146102135780639dc29fac14610231578063a9059cbb1461024d578063dd62ed3e1461027d576100cd565b806340c10f19146101a957806370a08231146101c55780638da5cb5b146101f5576100cd565b806306fdde03146100d1578063095ea7b3146100ef57806318160ddd1461011f57806323b872dd1461013d578063313ce5671461016d578063355274ea1461018b575b5f80fd5b6100d96102ad565b6040516100e69190610d69565b60405180910390f35b61010960048036038101906101049190610e1a565b61033d565b6040516101169190610e72565b60405180910390f35b61012761035f565b6040516101349190610e9a565b60405180910390f35b61015760048036038101906101529190610eb3565b610368565b6040516101649190610e72565b60405180910390f35b610175610396565b6040516101829190610f1e565b60405180910390f35b61019361039e565b6040516101a09190610e9a565b60405180910390f35b6101c360048036038101906101be9190610e1a565b6103c5565b005b6101df60048036038101906101da9190610f37565b6103f1565b6040516101ec9190610e9a565b60405180910390f35b6101fd610436565b60405161020a9190610f71565b60405180910390f35b61021b61045b565b6040516102289190610d69565b60405180910390f35b61024b60048036038101906102469190610e1a565b6104eb565b005b61026760048036038101906102629190610e1a565b610517565b6040516102749190610e72565b60405180910390f35b61029760048036038101906102929190610f8a565b610539565b6040516102a49190610e9a565b60405180910390f35b6060600380546102bc90610ff5565b80601f01602080910402602001604051908101604052809291908181526020018280546102e890610ff5565b80156103335780601f1061030a57610100808354040283529160200191610333565b820191905f5260205f20905b81548152906001019060200180831161031657829003601f168201915b5050505050905090565b5f806103476105bb565b90506103548185856105c2565b600191505092915050565b5f600254905090565b5f806103726105bb565b905061037f8582856105d4565b61038a858585610666565b60019150509392505050565b5f6012905090565b5f7f0000000000000000000000000000000000000000000000000000000000000000905090565b6103ed826103d1610396565b600a6103dd9190611181565b836103e891906111cb565b610756565b5050565b5f805f8373ffffffffffffffffffffffffffffffffffffffff1673ffffffffffffffffffffffffffffffffffffffff1681526020019081526020015f20549050919050565b60055f9054906101000a900473ffffffffffffffffffffffffffffffffffffffff1681565b60606004805461046a90610ff5565b80601f016020809104026020016040519081016040528092919081815260200182805461049690610ff5565b80156104e15780601f106104b8576101008083540402835291602001916104e1565b820191905f5260205f20905b8154815290600101906020018083116104c457829003601f168201915b5050505050905090565b610513826104f7610396565b600a6105039190611181565b8361050e91906111cb565b6107d5565b5050565b5f806105216105bb565b905061052e818585610666565b600191505092915050565b5f60015f8473ffffffffffffffffffffffffffffffffffffffff1673ffffffffffffffffffffffffffffffffffffffff1681526020019081526020015f205f8373ffffffffffffffffffffffffffffffffffffffff1673ffffffffffffffffffffffffffffffffffffffff1681526020019081526020015f2054905092915050565b5f33905090565b6105cf8383836001610854565b505050565b5f6105df8484610539565b90507fffffffffffffffffffffffffffffffffffffffffffffffffffffffffffffffff81146106605781811015610651578281836040517ffb8f41b20000000000000000000000000000000000000000000000000000000081526004016106489392919061120c565b60405180910390fd5b61065f84848484035f610854565b5b50505050565b5f73ffffffffffffffffffffffffffffffffffffffff168373ffffffffffffffffffffffffffffffffffffffff16036106d6575f6040517f96c6fd1e0000000000000000000000000000000000000000000000000000000081526004016106cd9190610f71565b60405180910390fd5b5f73ffffffffffffffffffffffffffffffffffffffff168273ffffffffffffffffffffffffffffffffffffffff1603610746575f6040517fec442f0500000000000000000000000000000000000000000000000000000000815260040161073d9190610f71565b60405180910390fd5b610751838383610a23565b505050565b5f73ffffffffffffffffffffffffffffffffffffffff168273ffffffffffffffffffffffffffffffffffffffff16036107c6575f6040517fec442f050000000000000000000000000000000000000000000000000000000081526004016107bd9190610f71565b60405180910390fd5b6107d15f8383610a23565b5050565b5f73ffffffffffffffffffffffffffffffffffffffff168273ffffffffffffffffffffffffffffffffffffffff1603610845575f6040517f96c6fd1e00000000000000000000000000000000000000000000000000000000815260040161083c9190610f71565b60405180910390fd5b610850825f83610a23565b5050565b5f73ffffffffffffffffffffffffffffffffffffffff168473ffffffffffffffffffffffffffffffffffffffff16036108c4575f6040517fe602df050000000000000000000000000000000000000000000000000000000081526004016108bb9190610f71565b60405180910390fd5b5f73ffffffffffffffffffffffffffffffffffffffff168373ffffffffffffffffffffffffffffffffffffffff1603610934575f6040517f94280d6200000000000000000000000000000000000000000000000000000000815260040161092b9190610f71565b60405180910390fd5b8160015f8673ffffffffffffffffffffffffffffffffffffffff1673ffffffffffffffffffffffffffffffffffffffff1681526020019081526020015f205f8573ffffffffffffffffffffffffffffffffffffffff1673ffffffffffffffffffffffffffffffffffffffff1681526020019081526020015f20819055508015610a1d578273ffffffffffffffffffffffffffffffffffffffff168473ffffffffffffffffffffffffffffffffffffffff167f8c5be1e5ebec7d5bd14f71427d1e84f3dd0314c0f7b2291e5b200ac8c7c3b92584604051610a149190610e9a565b60405180910390a35b50505050565b610a2e838383610ac6565b5f73ffffffffffffffffffffffffffffffffffffffff168373ffffffffffffffffffffffffffffffffffffffff1603610ac1575f610a6a61039e565b90505f610a7561035f565b905081811115610abe5780826040517f9e79f854000000000000000000000000000000000000000000000000000000008152600401610ab5929190611241565b60405180910390fd5b50505b505050565b5f73ffffffffffffffffffffffffffffffffffffffff168373ffffffffffffffffffffffffffffffffffffffff1603610b16578060025f828254610b0a9190611268565b92505081905550610be4565b5f805f8573ffffffffffffffffffffffffffffffffffffffff1673ffffffffffffffffffffffffffffffffffffffff1681526020019081526020015f2054905081811015610b9f578381836040517fe450d38c000000000000000000000000000000000000000000000000000000008152600401610b969392919061120c565b60405180910390fd5b8181035f808673ffffffffffffffffffffffffffffffffffffffff1673ffffffffffffffffffffffffffffffffffffffff1681526020019081526020015f2081905550505b5f73ffffffffffffffffffffffffffffffffffffffff168273ffffffffffffffffffffffffffffffffffffffff1603610c2b578060025f8282540392505081905550610c75565b805f808473ffffffffffffffffffffffffffffffffffffffff1673ffffffffffffffffffffffffffffffffffffffff1681526020019081526020015f205f82825401925050819055505b8173ffffffffffffffffffffffffffffffffffffffff168373ffffffffffffffffffffffffffffffffffffffff167fddf252ad1be2c89b69c2b068fc378daa952ba7f163c4a11628f55a4df523b3ef83604051610cd29190610e9a565b60405180910390a3505050565b5f81519050919050565b5f82825260208201905092915050565b5f5b83811015610d16578082015181840152602081019050610cfb565b5f8484015250505050565b5f601f19601f8301169050919050565b5f610d3b82610cdf565b610d458185610ce9565b9350610d55818560208601610cf9565b610d5e81610d21565b840191505092915050565b5f6020820190508181035f830152610d818184610d31565b905092915050565b5f80fd5b5f73ffffffffffffffffffffffffffffffffffffffff82169050919050565b5f610db682610d8d565b9050919050565b610dc681610dac565b8114610dd0575f80fd5b50565b5f81359050610de181610dbd565b92915050565b5f819050919050565b610df981610de7565b8114610e03575f80fd5b50565b5f81359050610e1481610df0565b92915050565b5f8060408385031215610e3057610e2f610d89565b5b5f610e3d85828601610dd3565b9250506020610e4e85828601610e06565b9150509250929050565b5f8115159050919050565b610e6c81610e58565b82525050565b5f602082019050610e855f830184610e63565b92915050565b610e9481610de7565b82525050565b5f602082019050610ead5f830184610e8b565b92915050565b5f805f60608486031215610eca57610ec9610d89565b5b5f610ed786828701610dd3565b9350506020610ee886828701610dd3565b9250506040610ef986828701610e06565b9150509250925092565b5f60ff82169050919050565b610f1881610f03565b82525050565b5f602082019050610f315f830184610f0f565b92915050565b5f60208284031215610f4c57610f4b610d89565b5b5f610f5984828501610dd3565b91505092915050565b610f6b81610dac565b82525050565b5f602082019050610f845f830184610f62565b92915050565b5f8060408385031215610fa057610f9f610d89565b5b5f610fad85828601610dd3565b9250506020610fbe85828601610dd3565b9150509250929050565b7f4e487b71000000000000000000000000000000000000000000000000000000005f52602260045260245ffd5b5f600282049050600182168061100c57607f821691505b60208210810361101f5761101e610fc8565b5b50919050565b7f4e487b71000000000000000000000000000000000000000000000000000000005f52601160045260245ffd5b5f8160011c9050919050565b5f808291508390505b60018511156110a75780860481111561108357611082611025565b5b60018516156110925780820291505b80810290506110a085611052565b9450611067565b94509492505050565b5f826110bf576001905061117a565b816110cc575f905061117a565b81600181146110e257600281146110ec5761111b565b600191505061117a565b60ff8411156110fe576110fd611025565b5b8360020a91508482111561111557611114611025565b5b5061117a565b5060208310610133831016604e8410600b84101617156111505782820a90508381111561114b5761114a611025565b5b61117a565b61115d848484600161105e565b9250905081840481111561117457611173611025565b5b81810290505b9392505050565b5f61118b82610de7565b915061119683610f03565b92506111c37fffffffffffffffffffffffffffffffffffffffffffffffffffffffffffffffff84846110b0565b905092915050565b5f6111d582610de7565b91506111e083610de7565b92508282026111ee81610de7565b9150828204841483151761120557611204611025565b5b5092915050565b5f60608201905061121f5f830186610f62565b61122c6020830185610e8b565b6112396040830184610e8b565b949350505050565b5f6040820190506112545f830185610e8b565b6112616020830184610e8b565b9392505050565b5f61127282610de7565b915061127d83610de7565b925082820190508082111561129557611294611025565b5b9291505056fea2646970667358221220e580f1530ab5eca5118d034a948b5ca2b0b41a2091e8d8993ff799898a88359564736f6c63430008140033",
  "linkReferences": {},
  "deployedLinkReferences": {}
}