{
  "_format": "hh-sol-artifact-1",
  "contractName": "JobPortal",
  "sourceName": "contracts/JobPortal.sol",
  "abi": [
    {
      "anonymous": false,
      "inputs": [
        {
          "indexed": false,
          "internalType": "uint256",
          "name": "projectId",
          "type": "uint256"
        },
        {
          "indexed": false,
          "internalType": "address",
          "name": "projectManager",
          "type": "address"
        },
        {
          "indexed": false,
          "internalType": "string",
          "name": "projectURI",
          "type": "string"
        }
      ],
      "name": "NewProject",
      "type": "event"
    },
    {
      "anonymous": false,
      "inputs": [
        {
          "indexed": false,
          "internalType": "uint256",
          "name": "projectId",
          "type": "uint256"
        },
        {
          "indexed": false,
          "internalType": "uint256",
          "name": "taskId",
          "type": "uint256"
        },
        {
          "indexed": false,
          "internalType": "address",
          "name": "freelancer",
          "type": "address"
        },
        {
          "indexed": false,
          "internalType": "uint256",
          "name": "bidAmount",
          "type": "uint256"
        },
        {
          "indexed": false,
          "internalType": "string",
          "name": "proposalURI",
          "type": "string"
        },
        {
          "indexed": false,
          "internalType": "bool",
          "name": "isWaiting",
          "type": "bool"
        },
        {
          "indexed": false,
          "internalType": "bool",
          "name": "isAccepted",
          "type": "bool"
        }
      ],
      "name": "NewProposal",
      "type": "event"
    },
    {
      "anonymous": false,
      "inputs": [
        {
          "indexed": false,
          "internalType": "uint256",
          "name": "projectId",
          "type": "uint256"
        },
        {
          "indexed": false,
          "internalType": "uint256",
          "name": "taskId",
          "type": "uint256"
        },
        {
          "indexed": false,
          "internalType": "uint256",
          "name": "stakedAmount",
          "type": "uint256"
        },
        {
          "indexed": false,
          "internalType": "string",
          "name": "taskURI",
          "type": "string"
        }
      ],
      "name": "NewTask",
      "type": "event"
    },
    {
      "anonymous": false,
      "inputs": [
        {
          "indexed": false,
          "internalType": "uint256",
          "name": "projectId",
          "type": "uint256"
        },
        {
          "indexed": false,
          "internalType": "uint256",
          "name": "taskId",
          "type": "uint256"
        },
        {
          "indexed": false,
          "internalType": "address",
          "name": "worker",
          "type": "address"
        },
        {
          "indexed": false,
          "internalType": "uint256",
          "name": "amount",
          "type": "uint256"
        }
      ],
      "name": "PaymentReleased",
      "type": "event"
    },
    {
      "anonymous": false,
      "inputs": [
        {
          "indexed": false,
          "internalType": "uint256",
          "name": "projectId",
          "type": "uint256"
        },
        {
          "indexed": false,
          "internalType": "uint256",
          "name": "taskId",
          "type": "uint256"
        }
      ],
      "name": "ReviewCompleted",
      "type": "event"
    },
    {
      "anonymous": false,
      "inputs": [
        {
          "indexed": false,
          "internalType": "uint256",
          "name": "projectId",
          "type": "uint256"
        },
        {
          "indexed": false,
          "internalType": "uint256",
          "name": "taskId",
          "type": "uint256"
        }
      ],
      "name": "TaskCompleted",
      "type": "event"
    },
    {
      "anonymous": false,
      "inputs": [
        {
          "indexed": false,
          "internalType": "uint256",
          "name": "projectId",
          "type": "uint256"
        },
        {
          "indexed": false,
          "internalType": "uint256",
          "name": "taskId",
          "type": "uint256"
        },
        {
          "indexed": false,
          "internalType": "address",
          "name": "worker",
          "type": "address"
        }
      ],
      "name": "WorkerSelected",
      "type": "event"
    },
    {
      "inputs": [
        {
          "internalType": "string",
          "name": "personURI",
          "type": "string"
        },
        {
          "internalType": "string",
          "name": "name",
          "type": "string"
        },
        {
          "internalType": "string",
          "name": "wallet_address",
          "type": "string"
        },
        {
          "internalType": "string",
          "name": "description",
          "type": "string"
        }
      ],
      "name": "addPerson",
      "outputs": [],
      "stateMutability": "nonpayable",
      "type": "function"
    },
    {
      "inputs": [
        {
          "internalType": "uint256",
          "name": "projectId",
          "type": "uint256"
        },
        {
          "internalType": "uint256",
          "name": "taskId",
          "type": "uint256"
        },
        {
          "internalType": "string",
          "name": "submissionURI",
          "type": "string"
        }
      ],
      "name": "completeTaskWorker",
      "outputs": [],
      "stateMutability": "nonpayable",
      "type": "function"
    },
    {
      "inputs": [
        {
          "internalType": "string",
          "name": "projectURI",
          "type": "string"
        }
      ],
      "name": "createProject",
      "outputs": [],
      "stateMutability": "nonpayable",
      "type": "function"
    },
    {
      "inputs": [
        {
          "internalType": "uint256",
          "name": "projectId",
          "type": "uint256"
        },
        {
          "internalType": "uint256",
          "name": "stakedAmount",
          "type": "uint256"
        },
        {
          "internalType": "string",
          "name": "taskURI",
          "type": "string"
        }
      ],
      "name": "createTask",
      "outputs": [],
      "stateMutability": "payable",
      "type": "function"
    },
    {
      "inputs": [],
      "name": "getBalance",
      "outputs": [
        {
          "internalType": "uint256",
          "name": "",
          "type": "uint256"
        }
      ],
      "stateMutability": "view",
      "type": "function"
    },
    {
      "inputs": [],
      "name": "getCurrentProjectId",
      "outputs": [
        {
          "internalType": "uint256",
          "name": "",
          "type": "uint256"
        }
      ],
      "stateMutability": "view",
      "type": "function"
    },
    {
      "inputs": [
        {
          "internalType": "uint256",
          "name": "projectId",
          "type": "uint256"
        },
        {
          "internalType": "uint256",
          "name": "taskId",
          "type": "uint256"
        }
      ],
      "name": "getProposalsByTaskId",
      "outputs": [
        {
          "components": [
            {
              "internalType": "bool",
              "name": "isWaiting",
              "type": "bool"
            },
            {
              "internalType": "bool",
              "name": "isAccepted",
              "type": "bool"
            },
            {
              "internalType": "string",
              "name": "proposalURI",
              "type": "string"
            },
            {
              "internalType": "address",
              "name": "freelancer",
              "type": "address"
            },
            {
              "internalType": "uint256",
              "name": "bidAmount",
              "type": "uint256"
            },
            {
              "internalType": "string",
              "name": "motivation",
              "type": "string"
            }
          ],
          "internalType": "struct JobPortal.Proposal[]",
          "name": "",
          "type": "tuple[]"
        }
      ],
      "stateMutability": "view",
      "type": "function"
    },
    {
      "inputs": [
        {
          "internalType": "uint256",
          "name": "projectId",
          "type": "uint256"
        },
        {
          "internalType": "uint256",
          "name": "taskId",
          "type": "uint256"
        }
      ],
      "name": "getStakedAmount",
      "outputs": [
        {
          "internalType": "uint256",
          "name": "",
          "type": "uint256"
        }
      ],
      "stateMutability": "view",
      "type": "function"
    },
    {
      "inputs": [
        {
          "internalType": "uint256",
          "name": "projectId",
          "type": "uint256"
        }
      ],
      "name": "getTaskCountByProjectId",
      "outputs": [
        {
          "internalType": "uint256",
          "name": "",
          "type": "uint256"
        }
      ],
      "stateMutability": "view",
      "type": "function"
    },
    {
      "inputs": [
        {
          "internalType": "uint256",
          "name": "projectId",
          "type": "uint256"
        },
        {
          "internalType": "uint256",
          "name": "taskId",
          "type": "uint256"
        }
      ],
      "name": "getTaskData",
      "outputs": [
        {
          "internalType": "string",
          "name": "taskURI",
          "type": "string"
        },
        {
          "internalType": "uint256",
          "name": "Id",
          "type": "uint256"
        },
        {
          "internalType": "uint256",
          "name": "stakedAmount",
          "type": "uint256"
        },
        {
          "internalType": "uint256",
          "name": "proposalCount",
          "type": "uint256"
        },
        {
          "internalType": "address",
          "name": "worker",
          "type": "address"
        },
        {
          "internalType": "bool",
          "name": "isComplete",
          "type": "bool"
        },
        {
          "internalType": "bool",
          "name": "isReviewed",
          "type": "bool"
        },
        {
          "internalType": "bool",
          "name": "onGoing",
          "type": "bool"
        },
        {
          "internalType": "string",
          "name": "submissionURI",
          "type": "string"
        }
      ],
      "stateMutability": "view",
      "type": "function"
    },
    {
      "inputs": [
        {
          "internalType": "uint256",
          "name": "projectId",
          "type": "uint256"
        },
        {
          "internalType": "uint256",
          "name": "taskId",
          "type": "uint256"
        }
      ],
      "name": "increaseStakedAmount",
      "outputs": [],
      "stateMutability": "payable",
      "type": "function"
    },
    {
      "inputs": [
        {
          "internalType": "address",
          "name": "",
          "type": "address"
        }
      ],
      "name": "person",
      "outputs": [
        {
          "internalType": "string",
          "name": "personURI",
          "type": "string"
        },
        {
          "internalType": "string",
          "name": "name",
          "type": "string"
        },
        {
          "internalType": "string",
          "name": "wallet_address",
          "type": "string"
        },
        {
          "internalType": "string",
          "name": "description",
          "type": "string"
        },
        {
          "internalType": "uint256",
          "name": "rating",
          "type": "uint256"
        },
        {
          "internalType": "uint256",
          "name": "total_projects",
          "type": "uint256"
        },
        {
          "internalType": "uint256",
          "name": "total_tasks",
          "type": "uint256"
        }
      ],
      "stateMutability": "view",
      "type": "function"
    },
    {
      "inputs": [],
      "name": "projectCount",
      "outputs": [
        {
          "internalType": "uint256",
          "name": "",
          "type": "uint256"
        }
      ],
      "stateMutability": "view",
      "type": "function"
    },
    {
      "inputs": [
        {
          "internalType": "uint256",
          "name": "",
          "type": "uint256"
        }
      ],
      "name": "projects",
      "outputs": [
        {
          "internalType": "string",
          "name": "projectURI",
          "type": "string"
        },
        {
          "internalType": "uint256",
          "name": "projectId",
          "type": "uint256"
        },
        {
          "internalType": "address",
          "name": "projectManager",
          "type": "address"
        },
        {
          "internalType": "uint256",
          "name": "taskCount",
          "type": "uint256"
        }
      ],
      "stateMutability": "view",
      "type": "function"
    },
    {
      "inputs": [
        {
          "internalType": "uint256",
          "name": "projectId",
          "type": "uint256"
        },
        {
          "internalType": "uint256",
          "name": "taskId",
          "type": "uint256"
        }
      ],
      "name": "refundStakedAmount",
      "outputs": [],
      "stateMutability": "payable",
      "type": "function"
    },
    {
      "inputs": [
        {
          "internalType": "uint256",
          "name": "projectId",
          "type": "uint256"
        },
        {
          "internalType": "uint256",
          "name": "taskId",
          "type": "uint256"
        }
      ],
      "name": "releasePayment",
      "outputs": [],
      "stateMutability": "payable",
      "type": "function"
    },
    {
      "inputs": [
        {
          "internalType": "uint256",
          "name": "projectId",
          "type": "uint256"
        },
        {
          "internalType": "uint256",
          "name": "taskId",
          "type": "uint256"
        }
      ],
      "name": "reviewTask",
      "outputs": [],
      "stateMutability": "nonpayable",
      "type": "function"
    },
    {
      "inputs": [
        {
          "internalType": "uint256",
          "name": "projectId",
          "type": "uint256"
        },
        {
          "internalType": "uint256",
          "name": "taskId",
          "type": "uint256"
        },
        {
          "internalType": "address",
          "name": "worker",
          "type": "address"
        }
      ],
      "name": "selectWorker",
      "outputs": [],
      "stateMutability": "nonpayable",
      "type": "function"
    },
    {
      "inputs": [
        {
          "internalType": "uint256",
          "name": "projectId",
          "type": "uint256"
        },
        {
          "internalType": "uint256",
          "name": "taskId",
          "type": "uint256"
        },
        {
          "internalType": "uint256",
          "name": "bidAmount",
          "type": "uint256"
        },
        {
          "internalType": "string",
          "name": "motivation",
          "type": "string"
        },
        {
          "internalType": "string",
          "name": "proposalURI",
          "type": "string"
        }
      ],
      "name": "sendProposal",
      "outputs": [],
      "stateMutability": "nonpayable",
      "type": "function"
    },
    {
      "stateMutability": "payable",
      "type": "receive"
    }
  ],
  "bytecode": "0x608060405234801561000f575f80fd5b506139258061001d5f395ff3fe608060405260043610610117575f3560e01c806382b350171161009f578063ce6b466011610063578063ce6b466014610395578063e2d7baac146103bd578063e76239d8146103f9578063f6e847db14610415578063f7e5c81e146104515761011e565b806382b35017146102d557806392adc438146102f157806397e99a801461030d578063b7e4b26514610329578063c868ba9a1461036b5761011e565b80632463efca116100e65780632463efca146101db57806336fbad2614610217578063446e707d1461024157806360a8940e146102695780636708c240146102915761011e565b8063107046bd1461012257806312065fe01461016157806315ee4df11461018b57806319a43c7f146101b35761011e565b3661011e57005b5f80fd5b34801561012d575f80fd5b5061014860048036038101906101439190612483565b610479565b6040516101589493929190612586565b60405180910390f35b34801561016c575f80fd5b50610175610549565b60405161018291906125d0565b60405180910390f35b348015610196575f80fd5b506101b160048036038101906101ac919061264a565b610550565b005b3480156101be575f80fd5b506101d960048036038101906101d49190612695565b610662565b005b3480156101e6575f80fd5b5061020160048036038101906101fc9190612483565b6109a7565b60405161020e91906125d0565b60405180910390f35b348015610222575f80fd5b5061022b6109c3565b60405161023891906125d0565b60405180910390f35b34801561024c575f80fd5b506102676004803603810190610262919061282e565b6109c9565b005b348015610274575f80fd5b5061028f600480360381019061028a91906128e0565b610d0b565b005b34801561029c575f80fd5b506102b760048036038101906102b291906129b4565b610f17565b6040516102cc99989796959493929190612a0c565b60405180910390f35b6102ef60048036038101906102ea9190612695565b6110ea565b005b61030b600480360381019061030691906129b4565b611435565b005b610327600480360381019061032291906129b4565b611632565b005b348015610334575f80fd5b5061034f600480360381019061034a9190612acf565b6118bd565b6040516103629796959493929190612afa565b60405180910390f35b348015610376575f80fd5b5061037f611b13565b60405161038c91906125d0565b60405180910390f35b3480156103a0575f80fd5b506103bb60048036038101906103b69190612b83565b611b27565b005b3480156103c8575f80fd5b506103e360048036038101906103de91906129b4565b611e36565b6040516103f09190612d90565b60405180910390f35b610413600480360381019061040e91906129b4565b612110565b005b348015610420575f80fd5b5061043b600480360381019061043691906129b4565b61230d565b60405161044891906125d0565b60405180910390f35b34801561045c575f80fd5b50610477600480360381019061047291906129b4565b61233c565b005b5f602052805f5260405f205f91509050805f01805461049790612ddd565b80601f01602080910402602001604051908101604052809291908181526020018280546104c390612ddd565b801561050e5780601f106104e55761010080835404028352916020019161050e565b820191905f5260205f20905b8154815290600101906020018083116104f157829003601f168201915b505050505090806001015490806002015f9054906101000a900473ffffffffffffffffffffffffffffffffffffffff16908060040154905084565b5f47905090565b81815f8060015481526020019081526020015f205f019182610573929190612fb4565b506001545f8060015481526020019081526020015f2060010181905550335f8060015481526020019081526020015f206002015f6101000a81548173ffffffffffffffffffffffffffffffffffffffff021916908373ffffffffffffffffffffffffffffffffffffffff1602179055505f805f60015481526020019081526020015f206004018190555060015f81548092919061060f906130ae565b91905055507fa974b2210ac17a1d9eb51946f0b5c8d97439a13bcb145bb58d3329f7d6da7e876001805461064391906130f5565b3384846040516106569493929190613154565b60405180910390a15050565b5f808581526020019081526020015f206003015f8481526020019081526020015f206004015f9054906101000a900473ffffffffffffffffffffffffffffffffffffffff1673ffffffffffffffffffffffffffffffffffffffff163373ffffffffffffffffffffffffffffffffffffffff1614610714576040517f08c379a000000000000000000000000000000000000000000000000000000000815260040161070b90613202565b60405180910390fd5b5f805f8681526020019081526020015f206003015f8581526020019081526020015f2060060160026101000a81548160ff0219169083151502179055505f805f8681526020019081526020015f206003015f8581526020019081526020015f206006015f6101000a81548160ff02191690831515021790555060015f808681526020019081526020015f206003015f8581526020019081526020015f2060060160016101000a81548160ff02191690831515021790555081815f808781526020019081526020015f206003015f8681526020019081526020015f2060070191826107ff929190612fb4565b505f5b5f808681526020019081526020015f206003015f8581526020019081526020015f2060050154811015610967573373ffffffffffffffffffffffffffffffffffffffff165f808781526020019081526020015f206003015f8681526020019081526020015f206003015f8381526020019081526020015f206002015f9054906101000a900473ffffffffffffffffffffffffffffffffffffffff1673ffffffffffffffffffffffffffffffffffffffff1603610954575f805f8781526020019081526020015f206003015f8681526020019081526020015f206003015f8381526020019081526020015f205f015f6101000a81548160ff0219169083151502179055505f805f8781526020019081526020015f206003015f8681526020019081526020015f206003015f8381526020019081526020015f205f0160016101000a81548160ff0219169083151502179055505b808061095f906130ae565b915050610802565b507ff9c405f91e34dcd1dc136cf6992ada4a8c24a2803e0fab7546364c64dac7ba2b8484604051610999929190613220565b60405180910390a150505050565b5f805f8381526020019081526020015f20600401549050919050565b60015481565b5f805f8881526020019081526020015f206003015f8781526020019081526020015f206005015490505f805f8981526020019081526020015f206003015f8881526020019081526020015f206004015f9054906101000a900473ffffffffffffffffffffffffffffffffffffffff1690505f73ffffffffffffffffffffffffffffffffffffffff168173ffffffffffffffffffffffffffffffffffffffff1614610aa8576040517f08c379a0000000000000000000000000000000000000000000000000000000008152600401610a9f906132b7565b60405180910390fd5b83835f808b81526020019081526020015f206003015f8a81526020019081526020015f206003015f8581526020019081526020015f206001019182610aee929190612fb4565b50335f808a81526020019081526020015f206003015f8981526020019081526020015f206003015f8481526020019081526020015f206002015f6101000a81548173ffffffffffffffffffffffffffffffffffffffff021916908373ffffffffffffffffffffffffffffffffffffffff160217905550855f808a81526020019081526020015f206003015f8981526020019081526020015f206003015f8481526020019081526020015f2060030181905550845f808a81526020019081526020015f206003015f8981526020019081526020015f206003015f8481526020019081526020015f206004019081610be491906132d5565b5060015f808a81526020019081526020015f206003015f8981526020019081526020015f206003015f8481526020019081526020015f205f015f6101000a81548160ff0219169083151502179055505f805f8a81526020019081526020015f206003015f8981526020019081526020015f206003015f8481526020019081526020015f205f0160016101000a81548160ff0219169083151502179055505f808981526020019081526020015f206003015f8881526020019081526020015f206005015f815480929190610cb6906130ae565b91905055507f5ce62d9613d22c9053cb894390a01c5dc38b34449121b09f3dd961ccb473806b88883389888860015f604051610cf99897969594939291906133a4565b60405180910390a15050505050505050565b8360025f3373ffffffffffffffffffffffffffffffffffffffff1673ffffffffffffffffffffffffffffffffffffffff1681526020019081526020015f205f019081610d5791906132d5565b508260025f3373ffffffffffffffffffffffffffffffffffffffff1673ffffffffffffffffffffffffffffffffffffffff1681526020019081526020015f206001019081610da591906132d5565b508160025f3373ffffffffffffffffffffffffffffffffffffffff1673ffffffffffffffffffffffffffffffffffffffff1681526020019081526020015f206002019081610df391906132d5565b508060025f3373ffffffffffffffffffffffffffffffffffffffff1673ffffffffffffffffffffffffffffffffffffffff1681526020019081526020015f206003019081610e4191906132d5565b505f60025f3373ffffffffffffffffffffffffffffffffffffffff1673ffffffffffffffffffffffffffffffffffffffff1681526020019081526020015f20600401819055505f60025f3373ffffffffffffffffffffffffffffffffffffffff1673ffffffffffffffffffffffffffffffffffffffff1681526020019081526020015f20600501819055505f60025f3373ffffffffffffffffffffffffffffffffffffffff1673ffffffffffffffffffffffffffffffffffffffff1681526020019081526020015f206006018190555050505050565b60605f805f805f805f60605f805f8d81526020019081526020015f206003015f8c81526020019081526020015f209050805f01816001015482600201548360050154846004015f9054906101000a900473ffffffffffffffffffffffffffffffffffffffff16856006015f9054906101000a900460ff168660060160019054906101000a900460ff168760060160029054906101000a900460ff1688600701888054610fc290612ddd565b80601f0160208091040260200160405190810160405280929190818152602001828054610fee90612ddd565b80156110395780601f1061101057610100808354040283529160200191611039565b820191905f5260205f20905b81548152906001019060200180831161101c57829003601f168201915b5050505050985080805461104c90612ddd565b80601f016020809104026020016040519081016040528092919081815260200182805461107890612ddd565b80156110c35780601f1061109a576101008083540402835291602001916110c3565b820191905f5260205f20905b8154815290600101906020018083116110a657829003601f168201915b50505050509050995099509950995099509950995099509950509295985092959850929598565b5f808581526020019081526020015f206002015f9054906101000a900473ffffffffffffffffffffffffffffffffffffffff1673ffffffffffffffffffffffffffffffffffffffff163373ffffffffffffffffffffffffffffffffffffffff161461118a576040517f08c379a00000000000000000000000000000000000000000000000000000000081526004016111819061348a565b60405180910390fd5b81815f808781526020019081526020015f206003015f805f8981526020019081526020015f206004015481526020019081526020015f205f0191826111d0929190612fb4565b505f808581526020019081526020015f20600401545f808681526020019081526020015f206003015f805f8881526020019081526020015f206004015481526020019081526020015f2060010181905550825f808681526020019081526020015f206003015f805f8881526020019081526020015f206004015481526020019081526020015f20600201819055505f805f8681526020019081526020015f206003015f805f8881526020019081526020015f206004015481526020019081526020015f206006015f6101000a81548160ff0219169083151502179055505f805f8681526020019081526020015f206003015f805f8881526020019081526020015f206004015481526020019081526020015f2060060160016101000a81548160ff0219169083151502179055505f808581526020019081526020015f206004015f815480929190611320906130ae565b91905055505f803073ffffffffffffffffffffffffffffffffffffffff163460405161134b906134d5565b5f6040518083038185875af1925050503d805f8114611385576040519150601f19603f3d011682016040523d82523d5f602084013e61138a565b606091505b5091509150816113cf576040517f08c379a00000000000000000000000000000000000000000000000000000000081526004016113c690613533565b60405180910390fd5b7f6ad35e82867f5346b4cd8cbbe887194073ed7847826f00f643f312e0263aec2a8660015f808a81526020019081526020015f206004015461141191906130f5565b878787604051611425959493929190613551565b60405180910390a1505050505050565b5f808381526020019081526020015f206002015f9054906101000a900473ffffffffffffffffffffffffffffffffffffffff1673ffffffffffffffffffffffffffffffffffffffff163373ffffffffffffffffffffffffffffffffffffffff16146114d5576040517f08c379a00000000000000000000000000000000000000000000000000000000081526004016114cc9061360d565b60405180910390fd5b5f808381526020019081526020015f206003015f8281526020019081526020015f206006015f9054906101000a900460ff1615611547576040517f08c379a000000000000000000000000000000000000000000000000000000000815260040161153e90613675565b60405180910390fd5b345f808481526020019081526020015f206003015f8381526020019081526020015f206002015f82825461157b9190613693565b925050819055505f803073ffffffffffffffffffffffffffffffffffffffff16346040516115a8906134d5565b5f6040518083038185875af1925050503d805f81146115e2576040519150601f19603f3d011682016040523d82523d5f602084013e6115e7565b606091505b50915091508161162c576040517f08c379a000000000000000000000000000000000000000000000000000000000815260040161162390613533565b60405180910390fd5b50505050565b5f808381526020019081526020015f206002015f9054906101000a900473ffffffffffffffffffffffffffffffffffffffff1673ffffffffffffffffffffffffffffffffffffffff163373ffffffffffffffffffffffffffffffffffffffff16146116d2576040517f08c379a00000000000000000000000000000000000000000000000000000000081526004016116c990613736565b60405180910390fd5b5f808381526020019081526020015f206003015f8281526020019081526020015f2060060160019054906101000a900460ff16611744576040517f08c379a000000000000000000000000000000000000000000000000000000000815260040161173b9061379e565b60405180910390fd5b5f805f8481526020019081526020015f206003015f8381526020019081526020015f206002015490505f805f8581526020019081526020015f206003015f8481526020019081526020015f206004015f9054906101000a900473ffffffffffffffffffffffffffffffffffffffff1690508073ffffffffffffffffffffffffffffffffffffffff166108fc8390811502906040515f60405180830381858888f193505050501580156117f8573d5f803e3d5ffd5b505f805f8681526020019081526020015f206003015f8581526020019081526020015f2060020181905550600160025f8373ffffffffffffffffffffffffffffffffffffffff1673ffffffffffffffffffffffffffffffffffffffff1681526020019081526020015f206004015f8282546118739190613693565b925050819055507f9ba01c1cf20940d4ad9b32173c4bd46bf426aae91b6cb420123d2aa5e2b76c6f848483856040516118af94939291906137bc565b60405180910390a150505050565b6002602052805f5260405f205f91509050805f0180546118dc90612ddd565b80601f016020809104026020016040519081016040528092919081815260200182805461190890612ddd565b80156119535780601f1061192a57610100808354040283529160200191611953565b820191905f5260205f20905b81548152906001019060200180831161193657829003601f168201915b50505050509080600101805461196890612ddd565b80601f016020809104026020016040519081016040528092919081815260200182805461199490612ddd565b80156119df5780601f106119b6576101008083540402835291602001916119df565b820191905f5260205f20905b8154815290600101906020018083116119c257829003601f168201915b5050505050908060020180546119f490612ddd565b80601f0160208091040260200160405190810160405280929190818152602001828054611a2090612ddd565b8015611a6b5780601f10611a4257610100808354040283529160200191611a6b565b820191905f5260205f20905b815481529060010190602001808311611a4e57829003601f168201915b505050505090806003018054611a8090612ddd565b80601f0160208091040260200160405190810160405280929190818152602001828054611aac90612ddd565b8015611af75780601f10611ace57610100808354040283529160200191611af7565b820191905f5260205f20905b815481529060010190602001808311611ada57829003601f168201915b5050505050908060040154908060050154908060060154905087565b5f60018054611b2291906130f5565b905090565b5f808481526020019081526020015f206003015f8381526020019081526020015f206006015f9054906101000a900460ff1615611b99576040517f08c379a0000000000000000000000000000000000000000000000000000000008152600401611b9090613675565b60405180910390fd5b805f808581526020019081526020015f206003015f8481526020019081526020015f206004015f6101000a81548173ffffffffffffffffffffffffffffffffffffffff021916908373ffffffffffffffffffffffffffffffffffffffff1602179055505f5b5f808581526020019081526020015f206003015f8481526020019081526020015f2060050154811015611df5578173ffffffffffffffffffffffffffffffffffffffff165f808681526020019081526020015f206003015f8581526020019081526020015f206003015f8381526020019081526020015f206002015f9054906101000a900473ffffffffffffffffffffffffffffffffffffffff1673ffffffffffffffffffffffffffffffffffffffff1603611d93575f805f8681526020019081526020015f206003015f8581526020019081526020015f206003015f8381526020019081526020015f205f015f6101000a81548160ff02191690831515021790555060015f808681526020019081526020015f206003015f8581526020019081526020015f206003015f8381526020019081526020015f205f0160016101000a81548160ff02191690831515021790555060015f808681526020019081526020015f206003015f8581526020019081526020015f2060060160026101000a81548160ff021916908315150217905550611de2565b5f805f8681526020019081526020015f206003015f8581526020019081526020015f206003015f8381526020019081526020015f205f0160016101000a81548160ff0219169083151502179055505b8080611ded906130ae565b915050611bfe565b507f8f309f47dbd966575d821f13a401f294d3436f03096a9db4ccb5ac77d2992607838383604051611e29939291906137ff565b60405180910390a1505050565b60605f805f8581526020019081526020015f206003015f8481526020019081526020015f206005015467ffffffffffffffff811115611e7857611e7761270a565b5b604051908082528060200260200182016040528015611eb157816020015b611e9e6123f3565b815260200190600190039081611e965790505b5090505f5b5f808681526020019081526020015f206003015f8581526020019081526020015f2060050154811015612105575f808681526020019081526020015f206003015f8581526020019081526020015f206003015f8281526020019081526020015f206040518060c00160405290815f82015f9054906101000a900460ff161515151581526020015f820160019054906101000a900460ff16151515158152602001600182018054611f6590612ddd565b80601f0160208091040260200160405190810160405280929190818152602001828054611f9190612ddd565b8015611fdc5780601f10611fb357610100808354040283529160200191611fdc565b820191905f5260205f20905b815481529060010190602001808311611fbf57829003601f168201915b50505050508152602001600282015f9054906101000a900473ffffffffffffffffffffffffffffffffffffffff1673ffffffffffffffffffffffffffffffffffffffff1673ffffffffffffffffffffffffffffffffffffffff1681526020016003820154815260200160048201805461205490612ddd565b80601f016020809104026020016040519081016040528092919081815260200182805461208090612ddd565b80156120cb5780601f106120a2576101008083540402835291602001916120cb565b820191905f5260205f20905b8154815290600101906020018083116120ae57829003601f168201915b5050505050815250508282815181106120e7576120e6613834565b5b602002602001018190525080806120fd906130ae565b915050611eb6565b508091505092915050565b5f808381526020019081526020015f206002015f9054906101000a900473ffffffffffffffffffffffffffffffffffffffff1673ffffffffffffffffffffffffffffffffffffffff163373ffffffffffffffffffffffffffffffffffffffff16146121b0576040517f08c379a00000000000000000000000000000000000000000000000000000000081526004016121a7906138d1565b60405180910390fd5b5f808381526020019081526020015f206003015f8281526020019081526020015f206006015f9054906101000a900460ff1615612222576040517f08c379a000000000000000000000000000000000000000000000000000000000815260040161221990613675565b60405180910390fd5b345f808481526020019081526020015f206003015f8381526020019081526020015f206002015f82825461225691906130f5565b925050819055505f803373ffffffffffffffffffffffffffffffffffffffff1634604051612283906134d5565b5f6040518083038185875af1925050503d805f81146122bd576040519150601f19603f3d011682016040523d82523d5f602084013e6122c2565b606091505b509150915081612307576040517f08c379a00000000000000000000000000000000000000000000000000000000081526004016122fe90613533565b60405180910390fd5b50505050565b5f805f8481526020019081526020015f206003015f8381526020019081526020015f2060020154905092915050565b60015f808481526020019081526020015f206003015f8381526020019081526020015f2060060160016101000a81548160ff0219169083151502179055505f805f8481526020019081526020015f206003015f8381526020019081526020015f206006015f6101000a81548160ff0219169083151502179055507fb389ae8814638c1b4372b4841418ca0262f4e9b76e3b4a73234cf197392288e682826040516123e7929190613220565b60405180910390a15050565b6040518060c001604052805f151581526020015f15158152602001606081526020015f73ffffffffffffffffffffffffffffffffffffffff1681526020015f8152602001606081525090565b5f604051905090565b5f80fd5b5f80fd5b5f819050919050565b61246281612450565b811461246c575f80fd5b50565b5f8135905061247d81612459565b92915050565b5f6020828403121561249857612497612448565b5b5f6124a58482850161246f565b91505092915050565b5f81519050919050565b5f82825260208201905092915050565b5f5b838110156124e55780820151818401526020810190506124ca565b5f8484015250505050565b5f601f19601f8301169050919050565b5f61250a826124ae565b61251481856124b8565b93506125248185602086016124c8565b61252d816124f0565b840191505092915050565b61254181612450565b82525050565b5f73ffffffffffffffffffffffffffffffffffffffff82169050919050565b5f61257082612547565b9050919050565b61258081612566565b82525050565b5f6080820190508181035f83015261259e8187612500565b90506125ad6020830186612538565b6125ba6040830185612577565b6125c76060830184612538565b95945050505050565b5f6020820190506125e35f830184612538565b92915050565b5f80fd5b5f80fd5b5f80fd5b5f8083601f84011261260a576126096125e9565b5b8235905067ffffffffffffffff811115612627576126266125ed565b5b602083019150836001820283011115612643576126426125f1565b5b9250929050565b5f80602083850312156126605761265f612448565b5b5f83013567ffffffffffffffff81111561267d5761267c61244c565b5b612689858286016125f5565b92509250509250929050565b5f805f80606085870312156126ad576126ac612448565b5b5f6126ba8782880161246f565b94505060206126cb8782880161246f565b935050604085013567ffffffffffffffff8111156126ec576126eb61244c565b5b6126f8878288016125f5565b925092505092959194509250565b5f80fd5b7f4e487b71000000000000000000000000000000000000000000000000000000005f52604160045260245ffd5b612740826124f0565b810181811067ffffffffffffffff8211171561275f5761275e61270a565b5b80604052505050565b5f61277161243f565b905061277d8282612737565b919050565b5f67ffffffffffffffff82111561279c5761279b61270a565b5b6127a5826124f0565b9050602081019050919050565b828183375f83830152505050565b5f6127d26127cd84612782565b612768565b9050828152602081018484840111156127ee576127ed612706565b5b6127f98482856127b2565b509392505050565b5f82601f830112612815576128146125e9565b5b81356128258482602086016127c0565b91505092915050565b5f805f805f8060a0878903121561284857612847612448565b5b5f61285589828a0161246f565b965050602061286689828a0161246f565b955050604061287789828a0161246f565b945050606087013567ffffffffffffffff8111156128985761289761244c565b5b6128a489828a01612801565b935050608087013567ffffffffffffffff8111156128c5576128c461244c565b5b6128d189828a016125f5565b92509250509295509295509295565b5f805f80608085870312156128f8576128f7612448565b5b5f85013567ffffffffffffffff8111156129155761291461244c565b5b61292187828801612801565b945050602085013567ffffffffffffffff8111156129425761294161244c565b5b61294e87828801612801565b935050604085013567ffffffffffffffff81111561296f5761296e61244c565b5b61297b87828801612801565b925050606085013567ffffffffffffffff81111561299c5761299b61244c565b5b6129a887828801612801565b91505092959194509250565b5f80604083850312156129ca576129c9612448565b5b5f6129d78582860161246f565b92505060206129e88582860161246f565b9150509250929050565b5f8115159050919050565b612a06816129f2565b82525050565b5f610120820190508181035f830152612a25818c612500565b9050612a34602083018b612538565b612a41604083018a612538565b612a4e6060830189612538565b612a5b6080830188612577565b612a6860a08301876129fd565b612a7560c08301866129fd565b612a8260e08301856129fd565b818103610100830152612a958184612500565b90509a9950505050505050505050565b612aae81612566565b8114612ab8575f80fd5b50565b5f81359050612ac981612aa5565b92915050565b5f60208284031215612ae457612ae3612448565b5b5f612af184828501612abb565b91505092915050565b5f60e0820190508181035f830152612b12818a612500565b90508181036020830152612b268189612500565b90508181036040830152612b3a8188612500565b90508181036060830152612b4e8187612500565b9050612b5d6080830186612538565b612b6a60a0830185612538565b612b7760c0830184612538565b98975050505050505050565b5f805f60608486031215612b9a57612b99612448565b5b5f612ba78682870161246f565b9350506020612bb88682870161246f565b9250506040612bc986828701612abb565b9150509250925092565b5f81519050919050565b5f82825260208201905092915050565b5f819050602082019050919050565b612c05816129f2565b82525050565b5f82825260208201905092915050565b5f612c25826124ae565b612c2f8185612c0b565b9350612c3f8185602086016124c8565b612c48816124f0565b840191505092915050565b612c5c81612566565b82525050565b612c6b81612450565b82525050565b5f60c083015f830151612c865f860182612bfc565b506020830151612c996020860182612bfc565b5060408301518482036040860152612cb18282612c1b565b9150506060830151612cc66060860182612c53565b506080830151612cd96080860182612c62565b5060a083015184820360a0860152612cf18282612c1b565b9150508091505092915050565b5f612d098383612c71565b905092915050565b5f602082019050919050565b5f612d2782612bd3565b612d318185612bdd565b935083602082028501612d4385612bed565b805f5b85811015612d7e5784840389528151612d5f8582612cfe565b9450612d6a83612d11565b925060208a01995050600181019050612d46565b50829750879550505050505092915050565b5f6020820190508181035f830152612da88184612d1d565b905092915050565b7f4e487b71000000000000000000000000000000000000000000000000000000005f52602260045260245ffd5b5f6002820490506001821680612df457607f821691505b602082108103612e0757612e06612db0565b5b50919050565b5f82905092915050565b5f819050815f5260205f209050919050565b5f6020601f8301049050919050565b5f82821b905092915050565b5f60088302612e737fffffffffffffffffffffffffffffffffffffffffffffffffffffffffffffffff82612e38565b612e7d8683612e38565b95508019841693508086168417925050509392505050565b5f819050919050565b5f612eb8612eb3612eae84612450565b612e95565b612450565b9050919050565b5f819050919050565b612ed183612e9e565b612ee5612edd82612ebf565b848454612e44565b825550505050565b5f90565b612ef9612eed565b612f04818484612ec8565b505050565b5b81811015612f2757612f1c5f82612ef1565b600181019050612f0a565b5050565b601f821115612f6c57612f3d81612e17565b612f4684612e29565b81016020851015612f55578190505b612f69612f6185612e29565b830182612f09565b50505b505050565b5f82821c905092915050565b5f612f8c5f1984600802612f71565b1980831691505092915050565b5f612fa48383612f7d565b9150826002028217905092915050565b612fbe8383612e0d565b67ffffffffffffffff811115612fd757612fd661270a565b5b612fe18254612ddd565b612fec828285612f2b565b5f601f831160018114613019575f8415613007578287013590505b6130118582612f99565b865550613078565b601f19841661302786612e17565b5f5b8281101561304e57848901358255600182019150602085019450602081019050613029565b8683101561306b5784890135613067601f891682612f7d565b8355505b6001600288020188555050505b50505050505050565b7f4e487b71000000000000000000000000000000000000000000000000000000005f52601160045260245ffd5b5f6130b882612450565b91507fffffffffffffffffffffffffffffffffffffffffffffffffffffffffffffffff82036130ea576130e9613081565b5b600182019050919050565b5f6130ff82612450565b915061310a83612450565b925082820390508181111561312257613121613081565b5b92915050565b5f61313383856124b8565b93506131408385846127b2565b613149836124f0565b840190509392505050565b5f6060820190506131675f830187612538565b6131746020830186612577565b8181036040830152613187818486613128565b905095945050505050565b7f4f6e6c792073656c656374656420776f726b65722063616e20636f6d706c65745f8201527f6520746865207461736b00000000000000000000000000000000000000000000602082015250565b5f6131ec602a836124b8565b91506131f782613192565b604082019050919050565b5f6020820190508181035f830152613219816131e0565b9050919050565b5f6040820190506132335f830185612538565b6132406020830184612538565b9392505050565b7f467265656c616e6365722068617320616c7265616479206265656e2073656c655f8201527f6374656420666f722074686973207461736b0000000000000000000000000000602082015250565b5f6132a16032836124b8565b91506132ac82613247565b604082019050919050565b5f6020820190508181035f8301526132ce81613295565b9050919050565b6132de826124ae565b67ffffffffffffffff8111156132f7576132f661270a565b5b6133018254612ddd565b61330c828285612f2b565b5f60209050601f83116001811461333d575f841561332b578287015190505b6133358582612f99565b86555061339c565b601f19841661334b86612e17565b5f5b828110156133725784890151825560018201915060208501945060208101905061334d565b8683101561338f578489015161338b601f891682612f7d565b8355505b6001600288020188555050505b505050505050565b5f60e0820190506133b75f83018b612538565b6133c4602083018a612538565b6133d16040830189612577565b6133de6060830188612538565b81810360808301526133f1818688613128565b905061340060a08301856129fd565b61340d60c08301846129fd565b9998505050505050505050565b7f4f6e6c792070726f6a656374206d616e616765722063616e20637265617465205f8201527f7461736b73000000000000000000000000000000000000000000000000000000602082015250565b5f6134746025836124b8565b915061347f8261341a565b604082019050919050565b5f6020820190508181035f8301526134a181613468565b9050919050565b5f81905092915050565b50565b5f6134c05f836134a8565b91506134cb826134b2565b5f82019050919050565b5f6134df826134b5565b9150819050919050565b7f4e6f742073656e740000000000000000000000000000000000000000000000005f82015250565b5f61351d6008836124b8565b9150613528826134e9565b602082019050919050565b5f6020820190508181035f83015261354a81613511565b9050919050565b5f6080820190506135645f830188612538565b6135716020830187612538565b61357e6040830186612538565b8181036060830152613591818486613128565b90509695505050505050565b7f4f6e6c792070726f6a656374206d616e616765722063616e20696e63726561735f8201527f65207374616b656420616d6f756e740000000000000000000000000000000000602082015250565b5f6135f7602f836124b8565b91506136028261359d565b604082019050919050565b5f6020820190508181035f830152613624816135eb565b9050919050565b7f5461736b20697320616c726561647920636f6d706c65746564000000000000005f82015250565b5f61365f6019836124b8565b915061366a8261362b565b602082019050919050565b5f6020820190508181035f83015261368c81613653565b9050919050565b5f61369d82612450565b91506136a883612450565b92508282019050808211156136c0576136bf613081565b5b92915050565b7f4f6e6c792070726f6a656374206d616e616765722063616e2072656c656173655f8201527f207061796d656e74000000000000000000000000000000000000000000000000602082015250565b5f6137206028836124b8565b915061372b826136c6565b604082019050919050565b5f6020820190508181035f83015261374d81613714565b9050919050565b7f5461736b206973206e6f742072657669657765642079657400000000000000005f82015250565b5f6137886018836124b8565b915061379382613754565b602082019050919050565b5f6020820190508181035f8301526137b58161377c565b9050919050565b5f6080820190506137cf5f830187612538565b6137dc6020830186612538565b6137e96040830185612577565b6137f66060830184612538565b95945050505050565b5f6060820190506138125f830186612538565b61381f6020830185612538565b61382c6040830184612577565b949350505050565b7f4e487b71000000000000000000000000000000000000000000000000000000005f52603260045260245ffd5b7f4f6e6c792070726f6a656374206d616e616765722063616e20726566756e64205f8201527f7374616b656420616d6f756e7400000000000000000000000000000000000000602082015250565b5f6138bb602d836124b8565b91506138c682613861565b604082019050919050565b5f6020820190508181035f8301526138e8816138af565b905091905056fea26469706673582212208a458e0f30701b0a8661e4efaa46a18c08a8eec9414738b04f590b74b5541f2564736f6c63430008140033",
  "linkReferences": {},
  "deployedLinkReferences": {}
}