{
  "_format": "hh-sol-artifact-1",
  "contractName": "JobPortal",
  "sourceName": "contracts/JobPortal.sol",
  "abi": [
    {
      "anonymous": false,
      "inputs": [
        {
          "indexed": false,
          "internalType": "uint256",
          "name": "projectId",
          "type": "uint256"
        },
        {
          "indexed": false,
          "internalType": "address",
          "name": "projectManager",
          "type": "address"
        },
        {
          "indexed": false,
          "internalType": "string",
          "name": "projectURI",
          "type": "string"
        }
      ],
      "name": "NewProject",
      "type": "event"
    },
    {
      "anonymous": false,
      "inputs": [
        {
          "indexed": false,
          "internalType": "uint256",
          "name": "projectId",
          "type": "uint256"
        },
        {
          "indexed": false,
          "internalType": "uint256",
          "name": "taskId",
          "type": "uint256"
        },
        {
          "indexed": false,
          "internalType": "address",
          "name": "freelancer",
          "type": "address"
        },
        {
          "indexed": false,
          "internalType": "uint256",
          "name": "bidAmount",
          "type": "uint256"
        },
        {
          "indexed": false,
          "internalType": "string",
          "name": "proposalURI",
          "type": "string"
        },
        {
          "indexed": false,
          "internalType": "bool",
          "name": "isWaiting",
          "type": "bool"
        },
        {
          "indexed": false,
          "internalType": "bool",
          "name": "isAccepted",
          "type": "bool"
        }
      ],
      "name": "NewProposal",
      "type": "event"
    },
    {
      "anonymous": false,
      "inputs": [
        {
          "indexed": false,
          "internalType": "uint256",
          "name": "projectId",
          "type": "uint256"
        },
        {
          "indexed": false,
          "internalType": "uint256",
          "name": "taskId",
          "type": "uint256"
        },
        {
          "indexed": false,
          "internalType": "uint256",
          "name": "stakedAmount",
          "type": "uint256"
        },
        {
          "indexed": false,
          "internalType": "string",
          "name": "taskURI",
          "type": "string"
        }
      ],
      "name": "NewTask",
      "type": "event"
    },
    {
      "anonymous": false,
      "inputs": [
        {
          "indexed": false,
          "internalType": "uint256",
          "name": "projectId",
          "type": "uint256"
        },
        {
          "indexed": false,
          "internalType": "uint256",
          "name": "taskId",
          "type": "uint256"
        },
        {
          "indexed": false,
          "internalType": "address",
          "name": "worker",
          "type": "address"
        },
        {
          "indexed": false,
          "internalType": "uint256",
          "name": "amount",
          "type": "uint256"
        }
      ],
      "name": "PaymentReleased",
      "type": "event"
    },
    {
      "anonymous": false,
      "inputs": [
        {
          "indexed": false,
          "internalType": "uint256",
          "name": "projectId",
          "type": "uint256"
        },
        {
          "indexed": false,
          "internalType": "uint256",
          "name": "taskId",
          "type": "uint256"
        }
      ],
      "name": "ReviewCompleted",
      "type": "event"
    },
    {
      "anonymous": false,
      "inputs": [
        {
          "indexed": false,
          "internalType": "uint256",
          "name": "projectId",
          "type": "uint256"
        },
        {
          "indexed": false,
          "internalType": "uint256",
          "name": "taskId",
          "type": "uint256"
        }
      ],
      "name": "TaskCompleted",
      "type": "event"
    },
    {
      "anonymous": false,
      "inputs": [
        {
          "indexed": false,
          "internalType": "uint256",
          "name": "projectId",
          "type": "uint256"
        },
        {
          "indexed": false,
          "internalType": "uint256",
          "name": "taskId",
          "type": "uint256"
        },
        {
          "indexed": false,
          "internalType": "address",
          "name": "worker",
          "type": "address"
        }
      ],
      "name": "WorkerSelected",
      "type": "event"
    },
    {
      "inputs": [
        {
          "internalType": "string",
          "name": "personURI",
          "type": "string"
        },
        {
          "internalType": "string",
          "name": "name",
          "type": "string"
        },
        {
          "internalType": "string",
          "name": "wallet_address",
          "type": "string"
        },
        {
          "internalType": "string",
          "name": "description",
          "type": "string"
        }
      ],
      "name": "addPerson",
      "outputs": [],
      "stateMutability": "nonpayable",
      "type": "function"
    },
    {
      "inputs": [
        {
          "internalType": "uint256",
          "name": "projectId",
          "type": "uint256"
        },
        {
          "internalType": "uint256",
          "name": "taskId",
          "type": "uint256"
        },
        {
          "internalType": "string",
          "name": "submissionURI",
          "type": "string"
        }
      ],
      "name": "completeTaskWorker",
      "outputs": [],
      "stateMutability": "nonpayable",
      "type": "function"
    },
    {
      "inputs": [
        {
          "internalType": "string",
          "name": "projectURI",
          "type": "string"
        }
      ],
      "name": "createProject",
      "outputs": [],
      "stateMutability": "nonpayable",
      "type": "function"
    },
    {
      "inputs": [
        {
          "internalType": "uint256",
          "name": "projectId",
          "type": "uint256"
        },
        {
          "internalType": "uint256",
          "name": "stakedAmount",
          "type": "uint256"
        },
        {
          "internalType": "string",
          "name": "taskURI",
          "type": "string"
        }
      ],
      "name": "createTask",
      "outputs": [],
      "stateMutability": "payable",
      "type": "function"
    },
    {
      "inputs": [],
      "name": "getBalance",
      "outputs": [
        {
          "internalType": "uint256",
          "name": "",
          "type": "uint256"
        }
      ],
      "stateMutability": "view",
      "type": "function"
    },
    {
      "inputs": [],
      "name": "getCurrentProjectId",
      "outputs": [
        {
          "internalType": "uint256",
          "name": "",
          "type": "uint256"
        }
      ],
      "stateMutability": "view",
      "type": "function"
    },
    {
      "inputs": [
        {
          "internalType": "uint256",
          "name": "projectId",
          "type": "uint256"
        },
        {
          "internalType": "uint256",
          "name": "taskId",
          "type": "uint256"
        }
      ],
      "name": "getProposalsByTaskId",
      "outputs": [
        {
          "components": [
            {
              "internalType": "bool",
              "name": "isWaiting",
              "type": "bool"
            },
            {
              "internalType": "bool",
              "name": "isAccepted",
              "type": "bool"
            },
            {
              "internalType": "string",
              "name": "proposalURI",
              "type": "string"
            },
            {
              "internalType": "address",
              "name": "freelancer",
              "type": "address"
            },
            {
              "internalType": "uint256",
              "name": "bidAmount",
              "type": "uint256"
            },
            {
              "internalType": "string",
              "name": "motivation",
              "type": "string"
            }
          ],
          "internalType": "struct JobPortal.Proposal[]",
          "name": "",
          "type": "tuple[]"
        }
      ],
      "stateMutability": "view",
      "type": "function"
    },
    {
      "inputs": [
        {
          "internalType": "uint256",
          "name": "projectId",
          "type": "uint256"
        },
        {
          "internalType": "uint256",
          "name": "taskId",
          "type": "uint256"
        }
      ],
      "name": "getStakedAmount",
      "outputs": [
        {
          "internalType": "uint256",
          "name": "",
          "type": "uint256"
        }
      ],
      "stateMutability": "view",
      "type": "function"
    },
    {
      "inputs": [
        {
          "internalType": "uint256",
          "name": "projectId",
          "type": "uint256"
        }
      ],
      "name": "getTaskCountByProjectId",
      "outputs": [
        {
          "internalType": "uint256",
          "name": "",
          "type": "uint256"
        }
      ],
      "stateMutability": "view",
      "type": "function"
    },
    {
      "inputs": [
        {
          "internalType": "uint256",
          "name": "projectId",
          "type": "uint256"
        },
        {
          "internalType": "uint256",
          "name": "taskId",
          "type": "uint256"
        }
      ],
      "name": "getTaskData",
      "outputs": [
        {
          "internalType": "string",
          "name": "taskURI",
          "type": "string"
        },
        {
          "internalType": "uint256",
          "name": "Id",
          "type": "uint256"
        },
        {
          "internalType": "uint256",
          "name": "stakedAmount",
          "type": "uint256"
        },
        {
          "internalType": "uint256",
          "name": "proposalCount",
          "type": "uint256"
        },
        {
          "internalType": "address",
          "name": "worker",
          "type": "address"
        },
        {
          "internalType": "bool",
          "name": "isComplete",
          "type": "bool"
        },
        {
          "internalType": "bool",
          "name": "isReviewed",
          "type": "bool"
        },
        {
          "internalType": "bool",
          "name": "onGoing",
          "type": "bool"
        },
        {
          "internalType": "string",
          "name": "submissionURI",
          "type": "string"
        }
      ],
      "stateMutability": "view",
      "type": "function"
    },
    {
      "inputs": [
        {
          "internalType": "uint256",
          "name": "projectId",
          "type": "uint256"
        },
        {
          "internalType": "uint256",
          "name": "taskId",
          "type": "uint256"
        }
      ],
      "name": "increaseStakedAmount",
      "outputs": [],
      "stateMutability": "payable",
      "type": "function"
    },
    {
      "inputs": [
        {
          "internalType": "address",
          "name": "",
          "type": "address"
        }
      ],
      "name": "person",
      "outputs": [
        {
          "internalType": "string",
          "name": "personURI",
          "type": "string"
        },
        {
          "internalType": "string",
          "name": "name",
          "type": "string"
        },
        {
          "internalType": "string",
          "name": "wallet_address",
          "type": "string"
        },
        {
          "internalType": "string",
          "name": "description",
          "type": "string"
        },
        {
          "internalType": "uint256",
          "name": "rating",
          "type": "uint256"
        },
        {
          "internalType": "uint256",
          "name": "total_projects",
          "type": "uint256"
        },
        {
          "internalType": "uint256",
          "name": "total_tasks",
          "type": "uint256"
        }
      ],
      "stateMutability": "view",
      "type": "function"
    },
    {
      "inputs": [],
      "name": "projectCount",
      "outputs": [
        {
          "internalType": "uint256",
          "name": "",
          "type": "uint256"
        }
      ],
      "stateMutability": "view",
      "type": "function"
    },
    {
      "inputs": [
        {
          "internalType": "uint256",
          "name": "",
          "type": "uint256"
        }
      ],
      "name": "projects",
      "outputs": [
        {
          "internalType": "string",
          "name": "projectURI",
          "type": "string"
        },
        {
          "internalType": "uint256",
          "name": "projectId",
          "type": "uint256"
        },
        {
          "internalType": "address",
          "name": "projectManager",
          "type": "address"
        },
        {
          "internalType": "uint256",
          "name": "taskCount",
          "type": "uint256"
        }
      ],
      "stateMutability": "view",
      "type": "function"
    },
    {
      "inputs": [
        {
          "internalType": "uint256",
          "name": "projectId",
          "type": "uint256"
        },
        {
          "internalType": "uint256",
          "name": "taskId",
          "type": "uint256"
        }
      ],
      "name": "refundStakedAmount",
      "outputs": [],
      "stateMutability": "payable",
      "type": "function"
    },
    {
      "inputs": [
        {
          "internalType": "uint256",
          "name": "projectId",
          "type": "uint256"
        },
        {
          "internalType": "uint256",
          "name": "taskId",
          "type": "uint256"
        }
      ],
      "name": "releasePayment",
      "outputs": [],
      "stateMutability": "payable",
      "type": "function"
    },
    {
      "inputs": [
        {
          "internalType": "uint256",
          "name": "projectId",
          "type": "uint256"
        },
        {
          "internalType": "uint256",
          "name": "taskId",
          "type": "uint256"
        }
      ],
      "name": "reviewTask",
      "outputs": [],
      "stateMutability": "nonpayable",
      "type": "function"
    },
    {
      "inputs": [
        {
          "internalType": "uint256",
          "name": "projectId",
          "type": "uint256"
        },
        {
          "internalType": "uint256",
          "name": "taskId",
          "type": "uint256"
        },
        {
          "internalType": "address",
          "name": "worker",
          "type": "address"
        }
      ],
      "name": "selectWorker",
      "outputs": [],
      "stateMutability": "nonpayable",
      "type": "function"
    },
    {
      "inputs": [
        {
          "internalType": "uint256",
          "name": "projectId",
          "type": "uint256"
        },
        {
          "internalType": "uint256",
          "name": "taskId",
          "type": "uint256"
        },
        {
          "internalType": "uint256",
          "name": "bidAmount",
          "type": "uint256"
        },
        {
          "internalType": "string",
          "name": "motivation",
          "type": "string"
        },
        {
          "internalType": "string",
          "name": "proposalURI",
          "type": "string"
        }
      ],
      "name": "sendProposal",
      "outputs": [],
      "stateMutability": "nonpayable",
      "type": "function"
    },
    {
      "stateMutability": "payable",
      "type": "receive"
    }
  ],
  "bytecode": "0x608060405234801561000f575f80fd5b50613aef8061001d5f395ff3fe608060405260043610610117575f3560e01c806382b350171161009f578063ce6b466011610063578063ce6b466014610395578063e2d7baac146103bd578063e76239d8146103f9578063f6e847db14610415578063f7e5c81e146104515761011e565b806382b35017146102d557806392adc438146102f157806397e99a801461030d578063b7e4b26514610329578063c868ba9a1461036b5761011e565b80632463efca116100e65780632463efca146101db57806336fbad2614610217578063446e707d1461024157806360a8940e146102695780636708c240146102915761011e565b8063107046bd1461012257806312065fe01461016157806315ee4df11461018b57806319a43c7f146101b35761011e565b3661011e57005b5f80fd5b34801561012d575f80fd5b5061014860048036038101906101439190612557565b610479565b604051610158949392919061265a565b60405180910390f35b34801561016c575f80fd5b50610175610549565b60405161018291906126a4565b60405180910390f35b348015610196575f80fd5b506101b160048036038101906101ac919061271e565b610550565b005b3480156101be575f80fd5b506101d960048036038101906101d49190612769565b610662565b005b3480156101e6575f80fd5b5061020160048036038101906101fc9190612557565b61096a565b60405161020e91906126a4565b60405180910390f35b348015610222575f80fd5b5061022b610986565b60405161023891906126a4565b60405180910390f35b34801561024c575f80fd5b5061026760048036038101906102629190612902565b61098c565b005b348015610274575f80fd5b5061028f600480360381019061028a91906129b4565b610cce565b005b34801561029c575f80fd5b506102b760048036038101906102b29190612a88565b610eda565b6040516102cc99989796959493929190612ae0565b60405180910390f35b6102ef60048036038101906102ea9190612769565b6110ad565b005b61030b60048036038101906103069190612a88565b6113f8565b005b61032760048036038101906103229190612a88565b6115f5565b005b348015610334575f80fd5b5061034f600480360381019061034a9190612ba3565b611880565b6040516103629796959493929190612bce565b60405180910390f35b348015610376575f80fd5b5061037f611ad6565b60405161038c91906126a4565b60405180910390f35b3480156103a0575f80fd5b506103bb60048036038101906103b69190612c57565b611aea565b005b3480156103c8575f80fd5b506103e360048036038101906103de9190612a88565b611df9565b6040516103f09190612e64565b60405180910390f35b610413600480360381019061040e9190612a88565b6120d3565b005b348015610420575f80fd5b5061043b60048036038101906104369190612a88565b6122d0565b60405161044891906126a4565b60405180910390f35b34801561045c575f80fd5b5061047760048036038101906104729190612a88565b6122ff565b005b5f602052805f5260405f205f91509050805f01805461049790612eb1565b80601f01602080910402602001604051908101604052809291908181526020018280546104c390612eb1565b801561050e5780601f106104e55761010080835404028352916020019161050e565b820191905f5260205f20905b8154815290600101906020018083116104f157829003601f168201915b505050505090806001015490806002015f9054906101000a900473ffffffffffffffffffffffffffffffffffffffff16908060040154905084565b5f47905090565b81815f8060015481526020019081526020015f205f019182610573929190613088565b506001545f8060015481526020019081526020015f2060010181905550335f8060015481526020019081526020015f206002015f6101000a81548173ffffffffffffffffffffffffffffffffffffffff021916908373ffffffffffffffffffffffffffffffffffffffff1602179055505f805f60015481526020019081526020015f206004018190555060015f81548092919061060f90613182565b91905055507fa974b2210ac17a1d9eb51946f0b5c8d97439a13bcb145bb58d3329f7d6da7e876001805461064391906131c9565b3384846040516106569493929190613228565b60405180910390a15050565b5f808581526020019081526020015f206003015f8481526020019081526020015f206004015f9054906101000a900473ffffffffffffffffffffffffffffffffffffffff1673ffffffffffffffffffffffffffffffffffffffff163373ffffffffffffffffffffffffffffffffffffffff1614610714576040517f08c379a000000000000000000000000000000000000000000000000000000000815260040161070b906132d6565b60405180910390fd5b5f805f8681526020019081526020015f206003015f8581526020019081526020015f2060060160026101000a81548160ff02191690831515021790555060015f808681526020019081526020015f206003015f8581526020019081526020015f206006015f6101000a81548160ff02191690831515021790555081815f808781526020019081526020015f206003015f8681526020019081526020015f2060070191826107c2929190613088565b505f5b5f808681526020019081526020015f206003015f8581526020019081526020015f206005015481101561092a573373ffffffffffffffffffffffffffffffffffffffff165f808781526020019081526020015f206003015f8681526020019081526020015f206003015f8381526020019081526020015f206002015f9054906101000a900473ffffffffffffffffffffffffffffffffffffffff1673ffffffffffffffffffffffffffffffffffffffff1603610917575f805f8781526020019081526020015f206003015f8681526020019081526020015f206003015f8381526020019081526020015f205f015f6101000a81548160ff0219169083151502179055505f805f8781526020019081526020015f206003015f8681526020019081526020015f206003015f8381526020019081526020015f205f0160016101000a81548160ff0219169083151502179055505b808061092290613182565b9150506107c5565b507ff9c405f91e34dcd1dc136cf6992ada4a8c24a2803e0fab7546364c64dac7ba2b848460405161095c9291906132f4565b60405180910390a150505050565b5f805f8381526020019081526020015f20600401549050919050565b60015481565b5f805f8881526020019081526020015f206003015f8781526020019081526020015f206005015490505f805f8981526020019081526020015f206003015f8881526020019081526020015f206004015f9054906101000a900473ffffffffffffffffffffffffffffffffffffffff1690505f73ffffffffffffffffffffffffffffffffffffffff168173ffffffffffffffffffffffffffffffffffffffff1614610a6b576040517f08c379a0000000000000000000000000000000000000000000000000000000008152600401610a629061338b565b60405180910390fd5b83835f808b81526020019081526020015f206003015f8a81526020019081526020015f206003015f8581526020019081526020015f206001019182610ab1929190613088565b50335f808a81526020019081526020015f206003015f8981526020019081526020015f206003015f8481526020019081526020015f206002015f6101000a81548173ffffffffffffffffffffffffffffffffffffffff021916908373ffffffffffffffffffffffffffffffffffffffff160217905550855f808a81526020019081526020015f206003015f8981526020019081526020015f206003015f8481526020019081526020015f2060030181905550845f808a81526020019081526020015f206003015f8981526020019081526020015f206003015f8481526020019081526020015f206004019081610ba791906133a9565b5060015f808a81526020019081526020015f206003015f8981526020019081526020015f206003015f8481526020019081526020015f205f015f6101000a81548160ff0219169083151502179055505f805f8a81526020019081526020015f206003015f8981526020019081526020015f206003015f8481526020019081526020015f205f0160016101000a81548160ff0219169083151502179055505f808981526020019081526020015f206003015f8881526020019081526020015f206005015f815480929190610c7990613182565b91905055507f5ce62d9613d22c9053cb894390a01c5dc38b34449121b09f3dd961ccb473806b88883389888860015f604051610cbc989796959493929190613478565b60405180910390a15050505050505050565b8360025f3373ffffffffffffffffffffffffffffffffffffffff1673ffffffffffffffffffffffffffffffffffffffff1681526020019081526020015f205f019081610d1a91906133a9565b508260025f3373ffffffffffffffffffffffffffffffffffffffff1673ffffffffffffffffffffffffffffffffffffffff1681526020019081526020015f206001019081610d6891906133a9565b508160025f3373ffffffffffffffffffffffffffffffffffffffff1673ffffffffffffffffffffffffffffffffffffffff1681526020019081526020015f206002019081610db691906133a9565b508060025f3373ffffffffffffffffffffffffffffffffffffffff1673ffffffffffffffffffffffffffffffffffffffff1681526020019081526020015f206003019081610e0491906133a9565b505f60025f3373ffffffffffffffffffffffffffffffffffffffff1673ffffffffffffffffffffffffffffffffffffffff1681526020019081526020015f20600401819055505f60025f3373ffffffffffffffffffffffffffffffffffffffff1673ffffffffffffffffffffffffffffffffffffffff1681526020019081526020015f20600501819055505f60025f3373ffffffffffffffffffffffffffffffffffffffff1673ffffffffffffffffffffffffffffffffffffffff1681526020019081526020015f206006018190555050505050565b60605f805f805f805f60605f805f8d81526020019081526020015f206003015f8c81526020019081526020015f209050805f01816001015482600201548360050154846004015f9054906101000a900473ffffffffffffffffffffffffffffffffffffffff16856006015f9054906101000a900460ff168660060160019054906101000a900460ff168760060160029054906101000a900460ff1688600701888054610f8590612eb1565b80601f0160208091040260200160405190810160405280929190818152602001828054610fb190612eb1565b8015610ffc5780601f10610fd357610100808354040283529160200191610ffc565b820191905f5260205f20905b815481529060010190602001808311610fdf57829003601f168201915b5050505050985080805461100f90612eb1565b80601f016020809104026020016040519081016040528092919081815260200182805461103b90612eb1565b80156110865780601f1061105d57610100808354040283529160200191611086565b820191905f5260205f20905b81548152906001019060200180831161106957829003601f168201915b50505050509050995099509950995099509950995099509950509295985092959850929598565b5f808581526020019081526020015f206002015f9054906101000a900473ffffffffffffffffffffffffffffffffffffffff1673ffffffffffffffffffffffffffffffffffffffff163373ffffffffffffffffffffffffffffffffffffffff161461114d576040517f08c379a00000000000000000000000000000000000000000000000000000000081526004016111449061355e565b60405180910390fd5b81815f808781526020019081526020015f206003015f805f8981526020019081526020015f206004015481526020019081526020015f205f019182611193929190613088565b505f808581526020019081526020015f20600401545f808681526020019081526020015f206003015f805f8881526020019081526020015f206004015481526020019081526020015f2060010181905550825f808681526020019081526020015f206003015f805f8881526020019081526020015f206004015481526020019081526020015f20600201819055505f805f8681526020019081526020015f206003015f805f8881526020019081526020015f206004015481526020019081526020015f206006015f6101000a81548160ff0219169083151502179055505f805f8681526020019081526020015f206003015f805f8881526020019081526020015f206004015481526020019081526020015f2060060160016101000a81548160ff0219169083151502179055505f808581526020019081526020015f206004015f8154809291906112e390613182565b91905055505f803073ffffffffffffffffffffffffffffffffffffffff163460405161130e906135a9565b5f6040518083038185875af1925050503d805f8114611348576040519150601f19603f3d011682016040523d82523d5f602084013e61134d565b606091505b509150915081611392576040517f08c379a000000000000000000000000000000000000000000000000000000000815260040161138990613607565b60405180910390fd5b7f6ad35e82867f5346b4cd8cbbe887194073ed7847826f00f643f312e0263aec2a8660015f808a81526020019081526020015f20600401546113d491906131c9565b8787876040516113e8959493929190613625565b60405180910390a1505050505050565b5f808381526020019081526020015f206002015f9054906101000a900473ffffffffffffffffffffffffffffffffffffffff1673ffffffffffffffffffffffffffffffffffffffff163373ffffffffffffffffffffffffffffffffffffffff1614611498576040517f08c379a000000000000000000000000000000000000000000000000000000000815260040161148f906136e1565b60405180910390fd5b5f808381526020019081526020015f206003015f8281526020019081526020015f206006015f9054906101000a900460ff161561150a576040517f08c379a000000000000000000000000000000000000000000000000000000000815260040161150190613749565b60405180910390fd5b345f808481526020019081526020015f206003015f8381526020019081526020015f206002015f82825461153e9190613767565b925050819055505f803073ffffffffffffffffffffffffffffffffffffffff163460405161156b906135a9565b5f6040518083038185875af1925050503d805f81146115a5576040519150601f19603f3d011682016040523d82523d5f602084013e6115aa565b606091505b5091509150816115ef576040517f08c379a00000000000000000000000000000000000000000000000000000000081526004016115e690613607565b60405180910390fd5b50505050565b5f808381526020019081526020015f206002015f9054906101000a900473ffffffffffffffffffffffffffffffffffffffff1673ffffffffffffffffffffffffffffffffffffffff163373ffffffffffffffffffffffffffffffffffffffff1614611695576040517f08c379a000000000000000000000000000000000000000000000000000000000815260040161168c9061380a565b60405180910390fd5b5f808381526020019081526020015f206003015f8281526020019081526020015f2060060160019054906101000a900460ff16611707576040517f08c379a00000000000000000000000000000000000000000000000000000000081526004016116fe90613872565b60405180910390fd5b5f805f8481526020019081526020015f206003015f8381526020019081526020015f206002015490505f805f8581526020019081526020015f206003015f8481526020019081526020015f206004015f9054906101000a900473ffffffffffffffffffffffffffffffffffffffff1690508073ffffffffffffffffffffffffffffffffffffffff166108fc8390811502906040515f60405180830381858888f193505050501580156117bb573d5f803e3d5ffd5b505f805f8681526020019081526020015f206003015f8581526020019081526020015f2060020181905550600160025f8373ffffffffffffffffffffffffffffffffffffffff1673ffffffffffffffffffffffffffffffffffffffff1681526020019081526020015f206004015f8282546118369190613767565b925050819055507f9ba01c1cf20940d4ad9b32173c4bd46bf426aae91b6cb420123d2aa5e2b76c6f848483856040516118729493929190613890565b60405180910390a150505050565b6002602052805f5260405f205f91509050805f01805461189f90612eb1565b80601f01602080910402602001604051908101604052809291908181526020018280546118cb90612eb1565b80156119165780601f106118ed57610100808354040283529160200191611916565b820191905f5260205f20905b8154815290600101906020018083116118f957829003601f168201915b50505050509080600101805461192b90612eb1565b80601f016020809104026020016040519081016040528092919081815260200182805461195790612eb1565b80156119a25780601f10611979576101008083540402835291602001916119a2565b820191905f5260205f20905b81548152906001019060200180831161198557829003601f168201915b5050505050908060020180546119b790612eb1565b80601f01602080910402602001604051908101604052809291908181526020018280546119e390612eb1565b8015611a2e5780601f10611a0557610100808354040283529160200191611a2e565b820191905f5260205f20905b815481529060010190602001808311611a1157829003601f168201915b505050505090806003018054611a4390612eb1565b80601f0160208091040260200160405190810160405280929190818152602001828054611a6f90612eb1565b8015611aba5780601f10611a9157610100808354040283529160200191611aba565b820191905f5260205f20905b815481529060010190602001808311611a9d57829003601f168201915b5050505050908060040154908060050154908060060154905087565b5f60018054611ae591906131c9565b905090565b5f808481526020019081526020015f206003015f8381526020019081526020015f206006015f9054906101000a900460ff1615611b5c576040517f08c379a0000000000000000000000000000000000000000000000000000000008152600401611b5390613749565b60405180910390fd5b805f808581526020019081526020015f206003015f8481526020019081526020015f206004015f6101000a81548173ffffffffffffffffffffffffffffffffffffffff021916908373ffffffffffffffffffffffffffffffffffffffff1602179055505f5b5f808581526020019081526020015f206003015f8481526020019081526020015f2060050154811015611db8578173ffffffffffffffffffffffffffffffffffffffff165f808681526020019081526020015f206003015f8581526020019081526020015f206003015f8381526020019081526020015f206002015f9054906101000a900473ffffffffffffffffffffffffffffffffffffffff1673ffffffffffffffffffffffffffffffffffffffff1603611d56575f805f8681526020019081526020015f206003015f8581526020019081526020015f206003015f8381526020019081526020015f205f015f6101000a81548160ff02191690831515021790555060015f808681526020019081526020015f206003015f8581526020019081526020015f206003015f8381526020019081526020015f205f0160016101000a81548160ff02191690831515021790555060015f808681526020019081526020015f206003015f8581526020019081526020015f2060060160026101000a81548160ff021916908315150217905550611da5565b5f805f8681526020019081526020015f206003015f8581526020019081526020015f206003015f8381526020019081526020015f205f0160016101000a81548160ff0219169083151502179055505b8080611db090613182565b915050611bc1565b507f8f309f47dbd966575d821f13a401f294d3436f03096a9db4ccb5ac77d2992607838383604051611dec939291906138d3565b60405180910390a1505050565b60605f805f8581526020019081526020015f206003015f8481526020019081526020015f206005015467ffffffffffffffff811115611e3b57611e3a6127de565b5b604051908082528060200260200182016040528015611e7457816020015b611e616124c7565b815260200190600190039081611e595790505b5090505f5b5f808681526020019081526020015f206003015f8581526020019081526020015f20600501548110156120c8575f808681526020019081526020015f206003015f8581526020019081526020015f206003015f8281526020019081526020015f206040518060c00160405290815f82015f9054906101000a900460ff161515151581526020015f820160019054906101000a900460ff16151515158152602001600182018054611f2890612eb1565b80601f0160208091040260200160405190810160405280929190818152602001828054611f5490612eb1565b8015611f9f5780601f10611f7657610100808354040283529160200191611f9f565b820191905f5260205f20905b815481529060010190602001808311611f8257829003601f168201915b50505050508152602001600282015f9054906101000a900473ffffffffffffffffffffffffffffffffffffffff1673ffffffffffffffffffffffffffffffffffffffff1673ffffffffffffffffffffffffffffffffffffffff1681526020016003820154815260200160048201805461201790612eb1565b80601f016020809104026020016040519081016040528092919081815260200182805461204390612eb1565b801561208e5780601f106120655761010080835404028352916020019161208e565b820191905f5260205f20905b81548152906001019060200180831161207157829003601f168201915b5050505050815250508282815181106120aa576120a9613908565b5b602002602001018190525080806120c090613182565b915050611e79565b508091505092915050565b5f808381526020019081526020015f206002015f9054906101000a900473ffffffffffffffffffffffffffffffffffffffff1673ffffffffffffffffffffffffffffffffffffffff163373ffffffffffffffffffffffffffffffffffffffff1614612173576040517f08c379a000000000000000000000000000000000000000000000000000000000815260040161216a906139a5565b60405180910390fd5b5f808381526020019081526020015f206003015f8281526020019081526020015f206006015f9054906101000a900460ff16156121e5576040517f08c379a00000000000000000000000000000000000000000000000000000000081526004016121dc90613749565b60405180910390fd5b345f808481526020019081526020015f206003015f8381526020019081526020015f206002015f82825461221991906131c9565b925050819055505f803373ffffffffffffffffffffffffffffffffffffffff1634604051612246906135a9565b5f6040518083038185875af1925050503d805f8114612280576040519150601f19603f3d011682016040523d82523d5f602084013e612285565b606091505b5091509150816122ca576040517f08c379a00000000000000000000000000000000000000000000000000000000081526004016122c190613607565b60405180910390fd5b50505050565b5f805f8481526020019081526020015f206003015f8381526020019081526020015f2060020154905092915050565b5f808381526020019081526020015f206002015f9054906101000a900473ffffffffffffffffffffffffffffffffffffffff1673ffffffffffffffffffffffffffffffffffffffff163373ffffffffffffffffffffffffffffffffffffffff161461239f576040517f08c379a000000000000000000000000000000000000000000000000000000000815260040161239690613a33565b60405180910390fd5b5f808381526020019081526020015f206003015f8281526020019081526020015f206006015f9054906101000a900460ff16612410576040517f08c379a000000000000000000000000000000000000000000000000000000000815260040161240790613a9b565b60405180910390fd5b60015f808481526020019081526020015f206003015f8381526020019081526020015f2060060160016101000a81548160ff0219169083151502179055505f805f8481526020019081526020015f206003015f8381526020019081526020015f206006015f6101000a81548160ff0219169083151502179055507fb389ae8814638c1b4372b4841418ca0262f4e9b76e3b4a73234cf197392288e682826040516124bb9291906132f4565b60405180910390a15050565b6040518060c001604052805f151581526020015f15158152602001606081526020015f73ffffffffffffffffffffffffffffffffffffffff1681526020015f8152602001606081525090565b5f604051905090565b5f80fd5b5f80fd5b5f819050919050565b61253681612524565b8114612540575f80fd5b50565b5f813590506125518161252d565b92915050565b5f6020828403121561256c5761256b61251c565b5b5f61257984828501612543565b91505092915050565b5f81519050919050565b5f82825260208201905092915050565b5f5b838110156125b957808201518184015260208101905061259e565b5f8484015250505050565b5f601f19601f8301169050919050565b5f6125de82612582565b6125e8818561258c565b93506125f881856020860161259c565b612601816125c4565b840191505092915050565b61261581612524565b82525050565b5f73ffffffffffffffffffffffffffffffffffffffff82169050919050565b5f6126448261261b565b9050919050565b6126548161263a565b82525050565b5f6080820190508181035f83015261267281876125d4565b9050612681602083018661260c565b61268e604083018561264b565b61269b606083018461260c565b95945050505050565b5f6020820190506126b75f83018461260c565b92915050565b5f80fd5b5f80fd5b5f80fd5b5f8083601f8401126126de576126dd6126bd565b5b8235905067ffffffffffffffff8111156126fb576126fa6126c1565b5b602083019150836001820283011115612717576127166126c5565b5b9250929050565b5f80602083850312156127345761273361251c565b5b5f83013567ffffffffffffffff81111561275157612750612520565b5b61275d858286016126c9565b92509250509250929050565b5f805f80606085870312156127815761278061251c565b5b5f61278e87828801612543565b945050602061279f87828801612543565b935050604085013567ffffffffffffffff8111156127c0576127bf612520565b5b6127cc878288016126c9565b925092505092959194509250565b5f80fd5b7f4e487b71000000000000000000000000000000000000000000000000000000005f52604160045260245ffd5b612814826125c4565b810181811067ffffffffffffffff82111715612833576128326127de565b5b80604052505050565b5f612845612513565b9050612851828261280b565b919050565b5f67ffffffffffffffff8211156128705761286f6127de565b5b612879826125c4565b9050602081019050919050565b828183375f83830152505050565b5f6128a66128a184612856565b61283c565b9050828152602081018484840111156128c2576128c16127da565b5b6128cd848285612886565b509392505050565b5f82601f8301126128e9576128e86126bd565b5b81356128f9848260208601612894565b91505092915050565b5f805f805f8060a0878903121561291c5761291b61251c565b5b5f61292989828a01612543565b965050602061293a89828a01612543565b955050604061294b89828a01612543565b945050606087013567ffffffffffffffff81111561296c5761296b612520565b5b61297889828a016128d5565b935050608087013567ffffffffffffffff81111561299957612998612520565b5b6129a589828a016126c9565b92509250509295509295509295565b5f805f80608085870312156129cc576129cb61251c565b5b5f85013567ffffffffffffffff8111156129e9576129e8612520565b5b6129f5878288016128d5565b945050602085013567ffffffffffffffff811115612a1657612a15612520565b5b612a22878288016128d5565b935050604085013567ffffffffffffffff811115612a4357612a42612520565b5b612a4f878288016128d5565b925050606085013567ffffffffffffffff811115612a7057612a6f612520565b5b612a7c878288016128d5565b91505092959194509250565b5f8060408385031215612a9e57612a9d61251c565b5b5f612aab85828601612543565b9250506020612abc85828601612543565b9150509250929050565b5f8115159050919050565b612ada81612ac6565b82525050565b5f610120820190508181035f830152612af9818c6125d4565b9050612b08602083018b61260c565b612b15604083018a61260c565b612b22606083018961260c565b612b2f608083018861264b565b612b3c60a0830187612ad1565b612b4960c0830186612ad1565b612b5660e0830185612ad1565b818103610100830152612b6981846125d4565b90509a9950505050505050505050565b612b828161263a565b8114612b8c575f80fd5b50565b5f81359050612b9d81612b79565b92915050565b5f60208284031215612bb857612bb761251c565b5b5f612bc584828501612b8f565b91505092915050565b5f60e0820190508181035f830152612be6818a6125d4565b90508181036020830152612bfa81896125d4565b90508181036040830152612c0e81886125d4565b90508181036060830152612c2281876125d4565b9050612c31608083018661260c565b612c3e60a083018561260c565b612c4b60c083018461260c565b98975050505050505050565b5f805f60608486031215612c6e57612c6d61251c565b5b5f612c7b86828701612543565b9350506020612c8c86828701612543565b9250506040612c9d86828701612b8f565b9150509250925092565b5f81519050919050565b5f82825260208201905092915050565b5f819050602082019050919050565b612cd981612ac6565b82525050565b5f82825260208201905092915050565b5f612cf982612582565b612d038185612cdf565b9350612d1381856020860161259c565b612d1c816125c4565b840191505092915050565b612d308161263a565b82525050565b612d3f81612524565b82525050565b5f60c083015f830151612d5a5f860182612cd0565b506020830151612d6d6020860182612cd0565b5060408301518482036040860152612d858282612cef565b9150506060830151612d9a6060860182612d27565b506080830151612dad6080860182612d36565b5060a083015184820360a0860152612dc58282612cef565b9150508091505092915050565b5f612ddd8383612d45565b905092915050565b5f602082019050919050565b5f612dfb82612ca7565b612e058185612cb1565b935083602082028501612e1785612cc1565b805f5b85811015612e525784840389528151612e338582612dd2565b9450612e3e83612de5565b925060208a01995050600181019050612e1a565b50829750879550505050505092915050565b5f6020820190508181035f830152612e7c8184612df1565b905092915050565b7f4e487b71000000000000000000000000000000000000000000000000000000005f52602260045260245ffd5b5f6002820490506001821680612ec857607f821691505b602082108103612edb57612eda612e84565b5b50919050565b5f82905092915050565b5f819050815f5260205f209050919050565b5f6020601f8301049050919050565b5f82821b905092915050565b5f60088302612f477fffffffffffffffffffffffffffffffffffffffffffffffffffffffffffffffff82612f0c565b612f518683612f0c565b95508019841693508086168417925050509392505050565b5f819050919050565b5f612f8c612f87612f8284612524565b612f69565b612524565b9050919050565b5f819050919050565b612fa583612f72565b612fb9612fb182612f93565b848454612f18565b825550505050565b5f90565b612fcd612fc1565b612fd8818484612f9c565b505050565b5b81811015612ffb57612ff05f82612fc5565b600181019050612fde565b5050565b601f8211156130405761301181612eeb565b61301a84612efd565b81016020851015613029578190505b61303d61303585612efd565b830182612fdd565b50505b505050565b5f82821c905092915050565b5f6130605f1984600802613045565b1980831691505092915050565b5f6130788383613051565b9150826002028217905092915050565b6130928383612ee1565b67ffffffffffffffff8111156130ab576130aa6127de565b5b6130b58254612eb1565b6130c0828285612fff565b5f601f8311600181146130ed575f84156130db578287013590505b6130e5858261306d565b86555061314c565b601f1984166130fb86612eeb565b5f5b82811015613122578489013582556001820191506020850194506020810190506130fd565b8683101561313f578489013561313b601f891682613051565b8355505b6001600288020188555050505b50505050505050565b7f4e487b71000000000000000000000000000000000000000000000000000000005f52601160045260245ffd5b5f61318c82612524565b91507fffffffffffffffffffffffffffffffffffffffffffffffffffffffffffffffff82036131be576131bd613155565b5b600182019050919050565b5f6131d382612524565b91506131de83612524565b92508282039050818111156131f6576131f5613155565b5b92915050565b5f613207838561258c565b9350613214838584612886565b61321d836125c4565b840190509392505050565b5f60608201905061323b5f83018761260c565b613248602083018661264b565b818103604083015261325b8184866131fc565b905095945050505050565b7f4f6e6c792073656c656374656420776f726b65722063616e20636f6d706c65745f8201527f6520746865207461736b00000000000000000000000000000000000000000000602082015250565b5f6132c0602a8361258c565b91506132cb82613266565b604082019050919050565b5f6020820190508181035f8301526132ed816132b4565b9050919050565b5f6040820190506133075f83018561260c565b613314602083018461260c565b9392505050565b7f467265656c616e6365722068617320616c7265616479206265656e2073656c655f8201527f6374656420666f722074686973207461736b0000000000000000000000000000602082015250565b5f61337560328361258c565b91506133808261331b565b604082019050919050565b5f6020820190508181035f8301526133a281613369565b9050919050565b6133b282612582565b67ffffffffffffffff8111156133cb576133ca6127de565b5b6133d58254612eb1565b6133e0828285612fff565b5f60209050601f831160018114613411575f84156133ff578287015190505b613409858261306d565b865550613470565b601f19841661341f86612eeb565b5f5b8281101561344657848901518255600182019150602085019450602081019050613421565b86831015613463578489015161345f601f891682613051565b8355505b6001600288020188555050505b505050505050565b5f60e08201905061348b5f83018b61260c565b613498602083018a61260c565b6134a5604083018961264b565b6134b2606083018861260c565b81810360808301526134c58186886131fc565b90506134d460a0830185612ad1565b6134e160c0830184612ad1565b9998505050505050505050565b7f4f6e6c792070726f6a656374206d616e616765722063616e20637265617465205f8201527f7461736b73000000000000000000000000000000000000000000000000000000602082015250565b5f61354860258361258c565b9150613553826134ee565b604082019050919050565b5f6020820190508181035f8301526135758161353c565b9050919050565b5f81905092915050565b50565b5f6135945f8361357c565b915061359f82613586565b5f82019050919050565b5f6135b382613589565b9150819050919050565b7f4e6f742073656e740000000000000000000000000000000000000000000000005f82015250565b5f6135f160088361258c565b91506135fc826135bd565b602082019050919050565b5f6020820190508181035f83015261361e816135e5565b9050919050565b5f6080820190506136385f83018861260c565b613645602083018761260c565b613652604083018661260c565b81810360608301526136658184866131fc565b90509695505050505050565b7f4f6e6c792070726f6a656374206d616e616765722063616e20696e63726561735f8201527f65207374616b656420616d6f756e740000000000000000000000000000000000602082015250565b5f6136cb602f8361258c565b91506136d682613671565b604082019050919050565b5f6020820190508181035f8301526136f8816136bf565b9050919050565b7f5461736b20697320616c726561647920636f6d706c65746564000000000000005f82015250565b5f61373360198361258c565b915061373e826136ff565b602082019050919050565b5f6020820190508181035f83015261376081613727565b9050919050565b5f61377182612524565b915061377c83612524565b925082820190508082111561379457613793613155565b5b92915050565b7f4f6e6c792070726f6a656374206d616e616765722063616e2072656c656173655f8201527f207061796d656e74000000000000000000000000000000000000000000000000602082015250565b5f6137f460288361258c565b91506137ff8261379a565b604082019050919050565b5f6020820190508181035f830152613821816137e8565b9050919050565b7f5461736b206973206e6f742072657669657765642079657400000000000000005f82015250565b5f61385c60188361258c565b915061386782613828565b602082019050919050565b5f6020820190508181035f83015261388981613850565b9050919050565b5f6080820190506138a35f83018761260c565b6138b0602083018661260c565b6138bd604083018561264b565b6138ca606083018461260c565b95945050505050565b5f6060820190506138e65f83018661260c565b6138f3602083018561260c565b613900604083018461264b565b949350505050565b7f4e487b71000000000000000000000000000000000000000000000000000000005f52603260045260245ffd5b7f4f6e6c792070726f6a656374206d616e616765722063616e20726566756e64205f8201527f7374616b656420616d6f756e7400000000000000000000000000000000000000602082015250565b5f61398f602d8361258c565b915061399a82613935565b604082019050919050565b5f6020820190508181035f8301526139bc81613983565b9050919050565b7f4f6e6c792070726f6a656374206d616e616765722063616e20726576696577205f8201527f5461736b00000000000000000000000000000000000000000000000000000000602082015250565b5f613a1d60248361258c565b9150613a28826139c3565b604082019050919050565b5f6020820190508181035f830152613a4a81613a11565b9050919050565b7f5461736b206973206e6f7420636f6d706c6574656420796574000000000000005f82015250565b5f613a8560198361258c565b9150613a9082613a51565b602082019050919050565b5f6020820190508181035f830152613ab281613a79565b905091905056fea2646970667358221220dce65ce61701efaf1046fb36fcd7b0317e5fa2572756d381c1eaaf5aeb81022564736f6c63430008140033",
  "linkReferences": {},
  "deployedLinkReferences": {}
}